:020000040000fa
:080000000002040000000000f2
:020000040000fa
:04000800ce03000023
:020000040000fa
:04000c00ce0300001f
:020000040000fa
:04001000ce0300001b
:020000040000fa
:04001400ce03000017
:020000040000fa
:04001800ce03000013
:020000040000fa
:04001c00ce0300000f
:020000040000fa
:04002000ce0300000b
:020000040000fa
:04002400ce03000007
:020000040000fa
:04002800ce03000003
:020000040000fa
:04002c00ce030000ff
:020000040000fa
:04003000ce030000fb
:020000040000fa
:0400340018030000ad
:020000040000fa
:04003800ce030000f3
:020000040000fa
:04003c00ce030000ef
:020000040000fa
:04004000ce030000eb
:020000040000fa
:04004400ce030000e7
:020000040000fa
:04004800ce030000e3
:020000040000fa
:04004c00ce030000df
:020000040000fa
:04005000ce030000db
:020000040000fa
:04005400ce030000d7
:020000040000fa
:04005800ce030000d3
:020000040000fa
:04005c00ce030000cf
:020000040000fa
:04006000ce030000cb
:020000040000fa
:04006400ce030000c7
:020000040000fa
:04006800ce030000c3
:020000040000fa
:04006c00ce030000bf
:020000040000fa
:04007000ce030000bb
:020000040000fa
:04007400c8020000be
:020000040000fa
:04007800ce030000b3
:020000040000fa
:04007c00ce030000af
:020000040000fa
:04008000ce030000ab
:020000040000fa
:04008400ce030000a7
:020000040000fa
:04008800ce030000a3
:020000040000fa
:04008c00ce0300009f
:020000040000fa
:04009000ce0300009b
:020000040000fa
:04009400ce03000097
:020000040000fa
:04009800ce03000093
:020000040000fa
:04009c00ce0300008f
:020000040000fa
:0400a000ce0300008b
:020000040000fa
:0400a400ce03000087
:020000040000fa
:0400a800ce03000083
:020000040000fa
:0400ac00ce0300007f
:020000040000fa
:0400b000ce0300007b
:020000040000fa
:0400b400ce03000077
:020000040000fa
:0400b800ce03000073
:020000040000fa
:0400bc00ce0300006f
:020000040000fa
:0400c000ce0300006b
:020000040000fa
:0400c400ce03000067
:020000040000fa
:0400c800ce03000063
:020000040000fa
:0400cc00ce0300005f
:020000040000fa
:0400d000ce0300005b
:020000040000fa
:0400d400ce03000057
:020000040000fa
:0400d800ce03000053
:020000040000fa
:0400dc00ce0300004f
:020000040000fa
:0400e000ce0300004b
:020000040000fa
:0400e400ce03000047
:020000040000fa
:0400e800ce03000043
:020000040000fa
:0400ec00ce0300003f
:020000040000fa
:0400f000ce0300003b
:020000040000fa
:0400f400ce03000037
:020000040000fa
:0400f800ce03000033
:020000040000fa
:0400fc00ce0300002f
:020000040000fa
:04010000ce0300002a
:020000040000fa
:04010400ce03000026
:020000040000fa
:04010800ce03000022
:020000040000fa
:04010c00ce0300001e
:020000040000fa
:04011000ce0300001a
:020000040000fa
:04011400ce03000016
:020000040000fa
:04011800ce03000012
:020000040000fa
:04011c00ce0300000e
:020000040000fa
:04012000ce0300000a
:020000040000fa
:04012400ce03000006
:020000040000fa
:04012800ce03000002
:020000040000fa
:04012c00ce030000fe
:020000040000fa
:04013000ce030000fa
:020000040000fa
:04013400ce030000f6
:020000040000fa
:04013800ce030000f2
:020000040000fa
:04013c00ce030000ee
:020000040000fa
:04014000ce030000ea
:020000040000fa
:04014400ce030000e6
:020000040000fa
:04014800ce030000e2
:020000040000fa
:04014c00ce030000de
:020000040000fa
:04015000ce030000da
:020000040000fa
:04015400ce030000d6
:020000040000fa
:04015800ce030000d2
:020000040000fa
:04015c00ce030000ce
:020000040000fa
:04016000ce030000ca
:020000040000fa
:04016400ce030000c6
:020000040000fa
:04016800ce030000c2
:020000040000fa
:04020800ce03000021
:020000040000fa
:04020c00ce0300001d
:020000040000fa
:04021000ce03000019
:020000040000fa
:04021400ce03000015
:020000040000fa
:04021800ce03000011
:020000040000fa
:04021c00ce0300000d
:020000040000fa
:04022000ce03000009
:020000040000fa
:04022400ce03000005
:020000040000fa
:04022800ce03000001
:020000040000fa
:04022c00ce030000fd
:020000040000fa
:04023000ce030000f9
:020000040000fa
:04023400ce030000f5
:020000040000fa
:04023800ce030000f1
:020000040000fa
:04023c00ce030000ed
:020000040000fa
:04024000ce030000e9
:020000040000fa
:04024400ce030000e5
:020000040000fa
:04024800ce030000e1
:020000040000fa
:04024c00ce030000dd
:020000040000fa
:04025000ce030000d9
:020000040000fa
:04025400ce030000d5
:020000040000fa
:04025800ce030000d1
:020000040000fa
:04025c00ce030000cd
:020000040000fa
:04026000ce030000c9
:020000040000fa
:04026400ce030000c5
:020000040000fa
:04026800ce030000c1
:020000040000fa
:04026c00ce030000bd
:020000040000fa
:04027000ce030000b9
:020000040000fa
:04027400ce030000b5
:020000040000fa
:04027800ce030000b1
:020000040000fa
:04027c00ce030000ad
:020000040000fa
:04028000ce030000a9
:020000040000fa
:04028400ce030000a5
:020000040000fa
:04028800ce030000a1
:020000040000fa
:04028c00ce0300009d
:020000040000fa
:04029000ce03000099
:020000040000fa
:04029400ce03000095
:020000040000fa
:04029800ce03000091
:020000040000fa
:04029c00ce0300008d
:020000040000fa
:0402a000ce03000089
:020000040000fa
:0402a400ce03000085
:020000040000fa
:0402a800ce03000081
:020000040000fa
:0402ac00ce0300007d
:020000040000fa
:0402b000ce03000079
:020000040000fa
:0402b400ce03000075
:020000040000fa
:0402b800ce03000071
:020000040000fa
:0402bc00ce0300006d
:020000040000fa
:0402c000ce03000069
:020000040000fa
:0402c400ce03000065
:020000040000fa
:0402c800ce03000061
:020000040000fa
:0402cc00ce0300005d
:020000040000fa
:0402d000ce03000059
:020000040000fa
:0402d400ce03000055
:020000040000fa
:0402d800ce03000051
:020000040000fa
:0402dc00ce0300004d
:020000040000fa
:0402e000ce03000049
:020000040000fa
:0402e400ce03000045
:020000040000fa
:0402e800ce03000041
:020000040000fa
:0402ec00ce0300003d
:020000040000fa
:0402f000ce03000039
:020000040000fa
:0402f400ce03000035
:020000040000fa
:0402f800ce03000031
:020000040000fa
:0402fc00ce0300002d
:020000040000fa
:04030000ce03000028
:020000040000fa
:04030400ce03000024
:020000040000fa
:04030800ce03000020
:020000040000fa
:04030c00ce0300001c
:020000040000fa
:04031000ce03000018
:020000040000fa
:04031400ce03000014
:020000040000fa
:04031800ce03000010
:020000040000fa
:04031c00ce0300000c
:020000040000fa
:04032000ce03000008
:020000040000fa
:04032400ce03000004
:020000040000fa
:04032800ce03000000
:020000040000fa
:04032c00ce030000fc
:020000040000fa
:04033000ce030000f8
:020000040000fa
:04033400ce030000f4
:020000040000fa
:04033800ce030000f0
:020000040000fa
:04033c00ce030000ec
:020000040000fa
:04034000ce030000e8
:020000040000fa
:04034400ce030000e4
:020000040000fa
:04034800ce030000e0
:020000040000fa
:04034c00ce030000dc
:020000040000fa
:04035000ce030000d8
:020000040000fa
:04035400ce030000d4
:020000040000fa
:04035800ce030000d0
:020000040000fa
:04035c00ce030000cc
:020000040000fa
:04036000ce030000c8
:020000040000fa
:04036400ce030000c4
:020000040000fa
:04036800ce030000c0
:020000040000fa
:100400006f8320000eff20000e0188000000000016
:10041000000020000000e000020032000001200087
:100420002002880014000700de0007000000e00042
:1004300003003a00e0ef2000010020000200370036
:100440000000200001002000810f70000100320038
:1004500014000700000020000000e000020032004d
:100460000000020000000000fa0902000000000085
:100470000040da000000fe004440a9000000200017
:100480000000e0000300320000002000a00188000e
:100490004440a800000006008a1f78008b1f7800e7
:1004a0000000060091018800800478000000eb0045
:1004b0001a003700e284440032a0b4009905ba0063
:1004c000e284440032a0b4009906ba00e2844400f9
:1004d00032a0b4000006eb00476fde00fd07b2005b
:1004e000636ce10003003a00ebff07000000eb0043
:1004f0000a003700606ce10004003a00005deb0088
:100500008b05e900fdff3e00040037006168e10053
:10051000010032000086eb000b00070019c7ba008b
:100520001905ba000e04e00003003a000a00e000da
:10053000e0ff3a0000000600fe07b2009e018800be
:100540008a047800f5ff3700395dba008b05e900b1
:100550000c003200295dba008b05e900080032006a
:100560000c00e00003003a00e284440032a0b40032
:10057000f5ff370019ddba008b05e900faff3a00f4
:100580008904e800e184440032a0b40000000600c1
:100590003600f800809fbe00829fbe00849fbe0090
:1005a000869fbe000000fa008660a900c04080005f
:1005b000e20f50000e003200e20f50000e003e002d
:1005c0000000e0000e003200e10f50000e003a0083
:1005d00010168000680060000000e0000c0032008f
:1005e000b005070020002000c04088000900370047
:1005f0000000000007003700000000000500370081
:100600000000000003003700000000000100370078
:10061000000000000080fa004f03be004f02be0041
:100620004f01be004f00be003600f900004006003a
:100630003600f800809fbe00829fbe00849fbe00ef
:10064000869fbe00881f78000000fa008460a90021
:10065000c0408000e20f500045003200e20f500021
:1006600045003600e40f50003a003200e40f50001d
:1006700003003900e50f5000390032003f00370019
:1006800088050700a01880008000eb002901070002
:100690006040880071408800901880008000eb0066
:1006a000240107008040880091408800a04180001c
:1006b000cf80de001c0107000002be006040800009
:1006c0007140800018c0b3000001be000400be00ed
:1006d000d50007000000e000010035000044eb00f9
:1006e0000804e000020032001e28ef00140037006a
:1006f000a0418000cf80de000b0107000002be0099
:10070000804080009140800018c0b3000001be000e
:100710000400be00c40007000000e0000100350036
:100720000044eb000804e000030032002000200039
:10073000f04088000200370010002000f0408800e0
:1007400040002000c040880060002000c0408800b9
:100750000a00370050002000c04088000700370022
:1007600010002000c0408800000000000300370097
:100770000000000001003700000000000080fa00c7
:100780004f0478004f03be004f02be004f01be0071
:100790004f00be003600f900004006000040da00bd
:1007a0000000fe000000050003f0a200889fbe00cc
:1007b0008a9fbe008c1f78001b01070022013300b6
:1007c0006450e1004f0032006420e100520032002a
:1007d00003826c0007003b000905d0000306d0002f
:1007e000820f54000c065d00020039000200320046
:1007f00089017800030678008582550004003d00d9
:100800000003fd008103fd008502ea008b854200a4
:10081000840f720002003b0060001000e0801800ae
:100820006011b8000005eb007a28e1000a003900e9
:1008300006007800c75ddd00f707b200878075000d
:100840002d003700828171000a0178006105600087
:100850008180d1000080d3008502e900f9ff3b00d0
:10086000060440008784480002003b006004140036
:10087000e0841c000988a300070032008a8171000f
:1008800082817100610164008904d1000884d30071
:100890008b05e800170037000978a30013003a0021
:1008a0000b00e000130034008b05e900080444004d
:1008b00089844c000a4474000978a3000d003a00b2
:1008c0000b00e000070034008b05e9000804440039
:1008d00089844c0001003a000b0020000978a30035
:1008e000f7ff32000001eb00020037008281710047
:1008f0000a017800910007000cf0a70001f0a000a9
:10090000da0037006420e10002003a00838f6c00b7
:10091000da0033000801be000200be00d300370039
:10092000889fbe008a9fbe008c1f7800be00070013
:10093000c500330003866c006450e1002e003200d5
:100940006420e100330032006150e1002f003200ea
:100950006120e1003100320085855500eb07b000d1
:1009600009002000080420000500370008044400a6
:1009700089844c000a0031000603430087834b0042
:100980000001530081815b00f8ff33000203be00c9
:100990000800a0000804440089844c00f6ff3900d8
:1009a000c639dd008301730001003200130020000e
:1009b0008904d1000884d3000998a30005003200ff
:1009c0000800a7000300a0008904d1000884d30018
:1009d0008b05e8008904d1000884d3000001eb00f6
:1009e0000281d2005500070001f0a1000cf0a70021
:1009f00001f0a0009d0037006420e1009f0032005c
:100a00000801be000200be00f7ff37006120e100d0
:100a10009a0032006000b800f3ff370000002000a9
:100a200001f82700f0ff370014002000f50137001f
:100a3000f4ff2f00f30137000003be00650007003c
:100a40006011b8000470a70007f0a10007f8a30028
:100a500017003a006509b1000d0032000d003500a5
:100a6000860220000628e10003003500030028006c
:100a70006000b800020005000000400081804800ce
:100a800002014900838149008502e900faff3a002a
:100a900000000600f88f4200050034008100d100fc
:100aa0000080d3008502e800fcff3a000000060049
:100ab0006011b8008000eb00000005000001be00de
:100ac000440007000470a70003f0a10003f8a3008e
:100ad00013003a006509b10010003200090035002a
:100ae0006928e1000200350001002800000005002f
:100af00000004000818048008502e900fcff3a00c8
:100b000000000600f88f4200050035008100d1008a
:100b10000080d3008502e800fcff3a0000000600d8
:100b20008000eb00000005004f89de0082017800a4
:100b3000cf0137006011b800dd01370081002000cf
:100b4000618055000b003d000b00200061fe2f006e
:100b50000100e1001d003400828171006101640028
:100b60008904d1000884d3000000e800faff3a00ad
:100b7000710020006100640003007000020060004a
:100b80000900320061044400e0844c000988a5009b
:100b9000050032008b05e8006808e10002003a0019
:100ba0008904d1000884d300f20f20000258e1002c
:100bb00005003d00c75ddd00f907b20089807500c2
:100bc00008007800000006000bf827008b00780072
:100bd00000000500c70ade00f107b200f50fb20001
:100be00008003200e1cf4200020032000170a00094
:100bf00024000500810f7000010032000408050088
:100c000044000500810f700002003a001400050046
:100c10008502e9000000400081c04800fcff3b0065
:100c20000170a000240005000004be00e9ff0700d9
:100c30000003be000405be000200be00e5ff070081
:100c4000844f7500000006000200be006450e10001
:100c5000050036006420e100020036000968a300a8
:100c600001003a000800be000160a0004f067800b5
:100c70004f05be004f04be0000000600f0ff2f002d
:100c8000f1ff2700f9ff3700889fbe008a9fbe0052
:100c90008c1f7800e4ff0700ebff330003866c0035
:100ca0006450e100240032006420e100270032009b
:100cb0006150e100220032006120e1002100320099
:100cc0008b854200eb07b1000134b800003ab80050
:100cd0000804420089844a00013ab8000030b80094
:100ce0008880400009014a000400330000004000f1
:100cf00081804800020149008b05e900c909dd0037
:100d0000830170000100320013002000c814de00cf
:100d10004814dd004709de001200b200c808de00fa
:100d20000884700085ff070001f0a1000cf0a70007
:100d300001f0a000cdff37006120e100cfff3200bd
:100d40000801be000200be00f7ff37006150e1005d
:100d5000fcff3a00c9ff3700889fbe008a9fbe0093
:100d600030044200b0844a0030054b0090854b00af
:100d70006000b1000898be000a90be000440e10087
:100d800005c8e10006d0e10007d8e100020031000b
:100d9000680040001008e8004f05be004f04be0088
:100da00000000600889fbe008a9fbe003004be007f
:100db0002005be000418540005985c0006185d006c
:100dc00007985d00110020000440e10005c8e10023
:100dd00006d0e10007d8e100010039008000eb00f7
:100de000108810004f05be004f04be000000060032
:100df0001200fa00889fbe008a9fbe008c9fbe0032
:100e0000e0b79f00f1b79f0082bf9f0093bf9f0094
:100e10000605be000404be000000eb00d0b79f0032
:100e2000c0b79f00b0b79f00a0b79f0090b79f00ca
:100e30000006eb005fb19700cfb097008201410040
:100e40003fb097000200e00004003d0037000700bb
:100e50007e805700c0ff0700030037003300070003
:100e60007e805700cfff0700dfb697000d00e0003f
:100e70000c0035006fb29700ffb297000fbb9700d0
:100e80009fbb970010002000010020006011b800f7
:100e90000002720081827200020373008383730078
:100ea0001b0007000c06e80001042000810f56001b
:100eb000e0ff3a000d00e00004003d000802be0023
:100ec0000a03be007e805700a3ff07005fa89700bb
:100ed0000000e00005003a001fb29700afb2970093
:100ee0003fb39700cfb39700090007006fb097009a
:100ef000ffb097000fb997009fb997004f06be004b
:100f00004f05be004f04be000080fa00000006003e
:100f10000100070000000600a4b79f00b5b79f00be
:100f2000c6b79f00d7b79f00000006004f09de003c
:100f300082817100b3b79f004f01de0081804000c5
:100f400082807000a1b79f008fb097004f09de002c
:100f5000000040000200700090b79f007fa897003b
:100f60004f01de00818040008280700081b79f00c9
:100f70000d0007004f3ade00000040000400700042
:100f8000f0af9f00080007000402420085824a007b
:100f900006034b0087834b00dfff07000802be00fb
:100fa0000a03be00000006002fb29700bfb29700f0
:100fb0004fb39700dfb3970000000600881f78004a
:100fc00018002000881f780089ff07008f87e9003c
:100fd0004f04780000000600801feb0084ff07002c
:100fe0008f87e90000000600889fbe008a9fbe0030
:100ff000e00f5000e08f5800e00f5900e08f5900db
:101000000c003d006044b8006055b800000054007a
:1010100081805c0002015d0083815d00180020007a
:101020001500070008003d00180007000004eb0051
:10103000050037000004eb000f00070002003d0030
:101040001200070018002000dcff07000800e00085
:10105000060032006022b8006033b8000000520081
:1010600081805a0002015b0083815b004f05be0056
:101070004f04be0000000600e00f5200e08f5a004f
:10108000e00f5b00e08f5b00000006006044b800ea
:101090006055b8000402540085825c0006035d00c0
:1010a00087835d0000000600889fbe008a9fbe0007
:1010b0008c1f7800e00f5000e08f5800e00f5900bf
:1010c000e08f59000d003d006044b8006055b80045
:1010d0000000540081805c0002015d0083815d009e
:1010e0001c0020000820e10009a8e1000ab0e1008e
:1010f0000bb8e1000d003d00080037000006eb00d2
:10110000e00f5200e08f5a00e00f5b00e08f5b00c1
:1011100006003d006044b8006055b8000402540069
:1011200085825c0006035d0087835d00aaff0700df
:101130000c00e000060032006022b8006033b80006
:101140000000520081805a0002015b0083815b0035
:101150004f0678004f05be004f04be000000060099
:10116000889fbe008a9fbe008c1f78000006eb009f
:10117000e00f5000e08f5800e00f5900e08f590059
:1011800007003d006044b8006055b80000005400fe
:1011900081805c0002015d0083815d001c002000f5
:1011a000e00f5200e08f5a00e00f5b00e08f5b0021
:1011b00007003d006044b8006055b80004025400c8
:1011c00085825c0006035d0087835d000c00a20041
:1011d000660007000c00e000060032006022b80044
:1011e0006033b8000000520081805a0002015b00a9
:1011f00083815b004f0678004f05be004f04be00a0
:1012000000000600889fbe008a9fbe00841f7800f1
:1012100085fe07004f00780011003300f0ff2f001b
:10122000838f6c0006003b00040565000a00a700e0
:101230000800370009f0a600100020000800370061
:10124000820f5400838f5c000300390010002000df
:1012500001003e000000200009f0a7000000ea00a5
:101260004f05be004f04be000000e0000000060075
:10127000881f7800030478000300e00007003d00a9
:1012800060001000e080180060011900e081190082
:1012900002003b0001f02d000300370004000700ae
:1012a00008f0a70001f0a0004f047800000006003d
:1012b000889fbe008a9fbe000082700004027100f9
:1012c00004827100260032000004be000200be004d
:1012d0006011b8006b092000950220000182cf0048
:1012e0000a0039000541b1000082cf000700390033
:1012f0000541b1000982cf00040039000541b10069
:101300000882cf00010039000541b10005425200ba
:10131000120032000a003b0082817100610164000a
:101320008100d1000080d3008984d3000884d300d9
:101330008b05e8000442e800f7ff3a000700370099
:101340000804440089844c00000048008180480063
:101350008b05e9000442e900f9ff3a00f7fd0700b8
:101360004f05be004f04be0000000600889fbe006f
:101370008a9fbe008c9fbe000404b8000506b8001a
:101380008904460060854e000606b8000a0546003e
:10139000e0854e000706b8008b054600040eb80035
:1013a000890446000a854e00e0854d00050eb80010
:1013b0000a0546008b854e00060eb8008b054600d8
:1013c0000416b8000a0546008b854e000516b800c5
:1013d0008b054600041eb8008b0546000800be00c1
:1013e0000a01be004f06be004f05be004f04be00fe
:0413f00000000600f3
:020000040000fa
:1013f4000200fa00881f7800213a8000f08f2f0045
:10140400008060000090a000203a880037000700a8
:10141400450007005300070097000700700007000d
:101424001828ef0000002000813424005002070037
:1014340000002000813424004d0207000000200039
:10144400813424004a0207000000eb00000f7800fa
:10145400401880008000eb00b5fd0700a040880024
:10146400b1408800a0408000b140800018c0b300a3
:1014740002002000834424006cfd07000000e0000b
:1014840001003c000044eb000804e00004003200ca
:10149400c402a800c422a900c442a900ecff37007a
:1014a400a0408000b140800018c0b30002002000ba
:1014b400833c24005bfd07000000e00001003500d0
:1014c4000044eb000804e00004003200c402a90058
:1014d400c422a800c442a900ddff3700c402a90049
:1014e400c422a900c442a800d9ff37000000fa00b2
:1014f400c002a900c022a900c802a900c822a900ec
:10150400c842a800c042a900c062a800c0c2a90085
:10151400c982a900c9a2a900c9c2a800c9e2a80039
:101524000080fa00000006000000fa00e004a900b0
:10153400e024a900e204a900e224a900e244a800ee
:10154400e044a900e064a900e284a900e384a900be
:10155400e3a4a900e3c4a800e3e4a8000080fa001f
:10156400000006000000fa0005e1a8002108800040
:101574000003200001007000200888000421a90055
:101584000021ef0021058000f0ff280000806000aa
:1015940000e0a000200588009460a8008460a900f1
:1015a40000712200100888008460a9006300a8006c
:1015b4006f00a90061058000f0ff280080806000b2
:1015c4000000260001007000600588008660a90004
:1015d4009660a8008660a9000080fa00000006005a
:1015e4000000fa00111a8000f0ff23000080600060
:1015f400101a880043a3a90020c0b30044e3b70035
:10160400011a8000f0f02f008080600000072000a5
:1016140001007000001a88004043a800211a8000cd
:10162400f00f2e00008060000080a000201a8800c7
:101634004343a8005083a8005123a8005143a800a5
:101644004143a800011a8000f0cf2f000080600001
:10165400001a88004363a800111a800030f82f0094
:10166400008060000030a000101a880041e3a80048
:101674000080fa00000006000000fa009021ef004c
:101684009221ef0000418000114180000afd070013
:1016940000007800b00c88000041800011418000f7
:1016a4000001be0040fc070003fd070000007800b5
:1016b400a00c8800810c800000c021000100700093
:1016c400800c8800900c8000f001b300900c88001e
:1016d40092e1a900810c800080ff2f00008060004f
:1016e4006000b300800c88009a21ef009c21ef0079
:1016f4004041800051418000effc07000000780069
:10170400000d88002041800031418000eafc070080
:1017140000007800f00c8800d10c800000c021008b
:1017240001007000d00c8800e00c8000f001b300d0
:10173400e00c88009ce1a900d10c800080ff2f0000
:10174400008060006000b300d00c8800a421ef008a
:10175400a621ef0060418000714180000001be00bd
:1017640011fc0700d4fc070000007800500d88002d
:1017740060418000714180000001be000afc070046
:10178400cdfc070000007800400d8800210d80008a
:1017940000c0210001007000200d8800300d800081
:1017a400f001b300300d8800a6e1a900210d8000ee
:1017b40080ff2f00008060006000b300200d8800cf
:1017c4000080fa00000006000000fa00d04080000b
:1017d400e10f50000a003200e10f5000050039000b
:1017e400e20f500009003200e30f50000a003200fb
:1017f4000c003700cda2a900cd82a9000d0037004e
:10180400cda2a800cd82a8000a003700cda2a8006e
:10181400cd82a90007003700cda2a900cd82a9007e
:10182400040037006000b8000040880011408800c0
:101834000000000000408000114080000001be0054
:101844000000200001f8230034fc07000002be0061
:1018540000418000114180000001be000400be0070
:1018640008fd070094fc070000007800b00c880015
:1018740000408000114080000001be0000002000f4
:1018840001f8230025fc07000002be00004180008f
:10189400114180000001be000400be00f9fc0700f5
:1018a4000001be00c0fb070083fc070000007800b5
:1018b400a00c8800c402a800c442a8000080fa005a
:1018c400000006000000fa00c402a900c442a900f6
:1018d4006000b8000040880011408800004080008b
:1018e400114080000001be000000200001f8230028
:1018f4000afc07000002be00004180001141800084
:101904000001be000400be00defc07006afc070004
:1019140000007800b00c8800004080001140800076
:101924000001be000000200001f82300fbfb0700bb
:101934000002be0000418000114180000001be0091
:101944000400be00cffc07000001be0096fb0700a8
:1019540059fc070000007800a00c88000080fa0001
:10196400000006000000fa00881f7800e0408000b4
:10197400e10f50002e003200e10f50000300390047
:10198400e20f5000530032008000370040418000d5
:101994005141800018c0b30002002c00a34d240064
:1019a40022fc07000000e00001003c000044eb00c2
:1019b4000804e000090032004441800055418000e1
:1019c40020408000314080000001be000400be00c1
:1019d40074fb070040418800514188004041800069
:1019e4005141800018c0b30002002c00a34d240014
:1019f4000cfc07000000e000010035000044eb008f
:101a04000804e0005c00320044418000554180003d
:101a140020408000314080000001be000400be0070
:101a240061fb07004041880051418800570037009e
:101a3400404180005141800018c0b30002002400de
:101a4400c3492400f9fb07000000e00001003c004a
:101a54000044eb000804e000090032004441800027
:101a64005541800020408000314080000001be00cc
:101a74000400be004bfb0700404188005141880030
:101a8400404180005141800018c0b300020024008e
:101a9400c3492400e3fb07000000e0000100350017
:101aa4000044eb000804e0003500320044418000ab
:101ab4005541800020408000314080000001be007c
:101ac4000400be0038fb07004041880051418800f3
:101ad4002e003700404180005141800018c0b300ff
:101ae40002002800b34b2400d0fb07000000e000f4
:101af40001003c000044eb000804e000090032004f
:101b040044418000554180002040800031408000e5
:101b14000001be000400be0022fb07004041880013
:101b240051418800404180005141800018c0b300f9
:101b340002002800b34b2400bafb07000000e000b9
:101b4400010035000044eb000804e0000e00320000
:101b54004441800055418000204080003140800095
:101b64000001be000400be000ffb070040418800d6
:101b740051418800050037000000000003003700d1
:101b84000000000001003700000000004041800018
:101b940051418000c8fb070000007800000d880058
:101ba4002041800031418000c3fb07000000780021
:101bb400f00c8800cc02a8004f0478000080fa00e2
:101bc400000006000000fa0030002000e040880019
:101bd400cc02a9000080fa00000006000000fa0010
:101be40040408000514080000001be000000200001
:101bf40001f8230049fb07000002be006041800099
:101c0400714180000001be000400be001dfc0700fd
:101c14000001be00e4fa0700a7fb070000007800fb
:101c2400500d880040408000514080000001be00fb
:101c34000000200001f8230038fb07000002be006a
:101c440060418000714180000001be000400be00bc
:101c54000cfc07000001be00d3fa070096fb070046
:101c640000007800400d8800cc22a8000080fa0013
:101c7400000006000000fa00cc22a9000080fa004f
:101c8400000006000200fa00000f78001e00780031
:101c9400100888000021ef000080fa000000060010
:101ca4000000fa00881f7800080037000040800018
:101cb40011408000a2702d0033c22300b9fa07003e
:101cc4000040880011408800bffe070000408000eb
:101cd4001140800018c0b3006011b80053fb070026
:101ce4000000e00001003c000044eb000804e000b8
:101cf400eeff3a004f0478000080fa00000006006e
:101d04000400fa00881f7800008fbe000800370026
:101d14000040800011408000a2702d0033c22300d7
:101d2400a1fa07000040880011408800a6fe0700c1
:101d3400004080001140800018c0b3001e01be00a6
:101d440038fb07000000e000010035000044eb0010
:101d54000804e000eeff3a001e01be0002408800c5
:101d6400134088004f0478000080fa000000060049
:101d74000400fa00008fbe00c402a800c422a80018
:101d8400c442a8001e00be002afb070004902000e5
:101d9400d50320006033b800f0fc0700843e200027
:101da400050020006033b80083fc07000000be007b
:101db40020000700c402a900c422a900c442a9004b
:101dc4001e00be001bfb070004902000d50320006a
:101dd4006033b800e1fc0700843e200005002000c9
:101de4006033b80074fc07000000be001100070057
:081df4000080fa000000060067
:020000040000fa
:101dfc002008000016000000020000000000fa009d
:101e0c00440040009c46000080bb44000000fa00e7
:101e1c00440b000000082000030000000008000034
:0c1e2c002000000000000000000000008a
:020000040000fa
:101e3800f03fb1000180b10006003500ee03090053
:101e480000000000403fb1000180b100fbff3d00f1
:101e58001000b000203fb0000200350000800900eb
:081e680000000000000006006c
:020000040000fa
:0200000401f009
:04000c00dfff000012
:020000040000fa
:0200000401f009
:04001000fbff0000f2
:020000040000fa
:0200000401f009
:04001c00fdff0000e4
:00000001FF
