:020000040000fa
:080000000002040000000000f2
:020000040000fa
:04000800c80200002a
:020000040000fa
:04000c00c802000026
:020000040000fa
:04001000c802000022
:020000040000fa
:04001400c80200001e
:020000040000fa
:04001800c80200001a
:020000040000fa
:04001c00c802000016
:020000040000fa
:04002000c802000012
:020000040000fa
:04002400c80200000e
:020000040000fa
:04002800c80200000a
:020000040000fa
:04002c00c802000006
:020000040000fa
:04003000c802000002
:020000040000fa
:04003400c8020000fe
:020000040000fa
:04003800c8020000fa
:020000040000fa
:04003c00c8020000f6
:020000040000fa
:04004000c8020000f2
:020000040000fa
:04004400c8020000ee
:020000040000fa
:04004800c8020000ea
:020000040000fa
:04004c00c8020000e6
:020000040000fa
:04005000c8020000e2
:020000040000fa
:04005400c8020000de
:020000040000fa
:04005800c8020000da
:020000040000fa
:04005c00c8020000d6
:020000040000fa
:04006000c8020000d2
:020000040000fa
:04006400c8020000ce
:020000040000fa
:04006800c8020000ca
:020000040000fa
:04006c00c8020000c6
:020000040000fa
:04007000c8020000c2
:020000040000fa
:04007400c8020000be
:020000040000fa
:04007800c8020000ba
:020000040000fa
:04007c00c8020000b6
:020000040000fa
:04008000c8020000b2
:020000040000fa
:04008400c8020000ae
:020000040000fa
:04008800c8020000aa
:020000040000fa
:04008c00c8020000a6
:020000040000fa
:04009000c8020000a2
:020000040000fa
:04009400c80200009e
:020000040000fa
:04009800c80200009a
:020000040000fa
:04009c00c802000096
:020000040000fa
:0400a000c802000092
:020000040000fa
:0400a400c80200008e
:020000040000fa
:0400a800c80200008a
:020000040000fa
:0400ac00c802000086
:020000040000fa
:0400b000c802000082
:020000040000fa
:0400b400c80200007e
:020000040000fa
:0400b800c80200007a
:020000040000fa
:0400bc00c802000076
:020000040000fa
:0400c000c802000072
:020000040000fa
:0400c400c80200006e
:020000040000fa
:0400c800c80200006a
:020000040000fa
:0400cc00c802000066
:020000040000fa
:0400d000c802000062
:020000040000fa
:0400d400c80200005e
:020000040000fa
:0400d800c80200005a
:020000040000fa
:0400dc00c802000056
:020000040000fa
:0400e000c802000052
:020000040000fa
:0400e400c80200004e
:020000040000fa
:0400e800c80200004a
:020000040000fa
:0400ec00c802000046
:020000040000fa
:0400f000c802000042
:020000040000fa
:0400f400c80200003e
:020000040000fa
:0400f800c80200003a
:020000040000fa
:0400fc00c802000036
:020000040000fa
:04010000c802000031
:020000040000fa
:04010400c80200002d
:020000040000fa
:04010800c802000029
:020000040000fa
:04010c00c802000025
:020000040000fa
:04011000c802000021
:020000040000fa
:04011400c80200001d
:020000040000fa
:04011800c802000019
:020000040000fa
:04011c00c802000015
:020000040000fa
:04012000c802000011
:020000040000fa
:04012400c80200000d
:020000040000fa
:04012800c802000009
:020000040000fa
:04012c00c802000005
:020000040000fa
:04013000c802000001
:020000040000fa
:04013400c8020000fd
:020000040000fa
:04013800c8020000f9
:020000040000fa
:04013c00c8020000f5
:020000040000fa
:04014000c8020000f1
:020000040000fa
:04014400c8020000ed
:020000040000fa
:04014800c8020000e9
:020000040000fa
:04014c00c8020000e5
:020000040000fa
:04015000c8020000e1
:020000040000fa
:04015400c8020000dd
:020000040000fa
:04015800c8020000d9
:020000040000fa
:04015c00c8020000d5
:020000040000fa
:04016000c8020000d1
:020000040000fa
:04016400c8020000cd
:020000040000fa
:04016800c8020000c9
:020000040000fa
:04020800c802000028
:020000040000fa
:04020c00c802000024
:020000040000fa
:04021000c802000020
:020000040000fa
:04021400c80200001c
:020000040000fa
:04021800c802000018
:020000040000fa
:04021c00c802000014
:020000040000fa
:04022000c802000010
:020000040000fa
:04022400c80200000c
:020000040000fa
:04022800c802000008
:020000040000fa
:04022c00c802000004
:020000040000fa
:04023000c802000000
:020000040000fa
:04023400c8020000fc
:020000040000fa
:04023800c8020000f8
:020000040000fa
:04023c00c8020000f4
:020000040000fa
:04024000c8020000f0
:020000040000fa
:04024400c8020000ec
:020000040000fa
:04024800c8020000e8
:020000040000fa
:04024c00c8020000e4
:020000040000fa
:04025000c8020000e0
:020000040000fa
:04025400c8020000dc
:020000040000fa
:04025800c8020000d8
:020000040000fa
:04025c00c8020000d4
:020000040000fa
:04026000c8020000d0
:020000040000fa
:04026400c8020000cc
:020000040000fa
:04026800c8020000c8
:020000040000fa
:04026c00c8020000c4
:020000040000fa
:04027000c8020000c0
:020000040000fa
:04027400c8020000bc
:020000040000fa
:04027800c8020000b8
:020000040000fa
:04027c00c8020000b4
:020000040000fa
:04028000c8020000b0
:020000040000fa
:04028400c8020000ac
:020000040000fa
:04028800c8020000a8
:020000040000fa
:04028c00c8020000a4
:020000040000fa
:04029000c8020000a0
:020000040000fa
:04029400c80200009c
:020000040000fa
:04029800c802000098
:020000040000fa
:04029c00c802000094
:020000040000fa
:0402a000c802000090
:020000040000fa
:0402a400c80200008c
:020000040000fa
:0402a800c802000088
:020000040000fa
:0402ac00c802000084
:020000040000fa
:0402b000c802000080
:020000040000fa
:0402b400c80200007c
:020000040000fa
:0402b800c802000078
:020000040000fa
:0402bc00c802000074
:020000040000fa
:0402c000c802000070
:020000040000fa
:0402c400c80200006c
:020000040000fa
:0402c800c802000068
:020000040000fa
:0402cc00c802000064
:020000040000fa
:0402d000c802000060
:020000040000fa
:0402d400c80200005c
:020000040000fa
:0402d800c802000058
:020000040000fa
:0402dc00c802000054
:020000040000fa
:0402e000c802000050
:020000040000fa
:0402e400c80200004c
:020000040000fa
:0402e800c802000048
:020000040000fa
:0402ec00c802000044
:020000040000fa
:0402f000c802000040
:020000040000fa
:0402f400c80200003c
:020000040000fa
:0402f800c802000038
:020000040000fa
:0402fc00c802000034
:020000040000fa
:04030000c80200002f
:020000040000fa
:04030400c80200002b
:020000040000fa
:04030800c802000027
:020000040000fa
:04030c00c802000023
:020000040000fa
:04031000c80200001f
:020000040000fa
:04031400c80200001b
:020000040000fa
:04031800c802000017
:020000040000fa
:04031c00c802000013
:020000040000fa
:04032000c80200000f
:020000040000fa
:04032400c80200000b
:020000040000fa
:04032800c802000007
:020000040000fa
:04032c00c802000003
:020000040000fa
:04033000c8020000ff
:020000040000fa
:04033400c8020000fb
:020000040000fa
:04033800c8020000f7
:020000040000fa
:04033c00c8020000f3
:020000040000fa
:04034000c8020000ef
:020000040000fa
:04034400c8020000eb
:020000040000fa
:04034800c8020000e7
:020000040000fa
:04034c00c8020000e3
:020000040000fa
:04035000c8020000df
:020000040000fa
:04035400c8020000db
:020000040000fa
:04035800c8020000d7
:020000040000fa
:04035c00c8020000d3
:020000040000fa
:04036000c8020000cf
:020000040000fa
:04036400c8020000cb
:020000040000fa
:04036800c8020000c7
:020000040000fa
:100400000f8420000eff20000e0188000000000075
:10041000000020000000e000020032000001200087
:1004200020028800140007005b0007000000e000c5
:1004300003003a004028210001002000020037009c
:100440000000200001002000810f70000100320038
:1004500014000700000020000000e000020032004d
:100460000000020000000000f4080200000000008c
:100470000040da000000fe004440a9000000200017
:100480000000e0000300320000002000a00188000e
:100490004440a800000006008a1f78008b1f7800e7
:1004a0000000060091018800800478000000eb0045
:1004b0001a003700e284440032a0b4009905ba0063
:1004c000e284440032a0b4009906ba00e2844400f9
:1004d00032a0b4000006eb00476fde00fd07b2005b
:1004e000636ce10003003a00ebff07000000eb0043
:1004f0000a003700606ce10004003a00005deb0088
:100500008b05e900fdff3e00040037006168e10053
:10051000010032000086eb000b00070019c7ba008b
:100520001905ba000e04e00003003a000a00e000da
:10053000e0ff3a0000000600fe07b2009e018800be
:100540008a047800f5ff3700395dba008b05e900b1
:100550000c003200295dba008b05e900080032006a
:100560000c00e00003003a00e284440032a0b40032
:10057000f5ff370019ddba008b05e900faff3a00f4
:100580008904e800e184440032a0b40000000600c1
:100590000040da000000fe000000050003f0a200a9
:1005a000889fbe008a9fbe008c1f78001b01070039
:1005b000220133006450e1004f0032006420e1006a
:1005c0005200320003826c0007003b000905d00096
:1005d0000306d000820f54000c065d0002003900b3
:1005e00002003200890178000306780085825500f8
:1005f00004003d000003fd008103fd008502ea00c8
:100600008b854200840f720002003b0060001000e6
:10061000e08018006011b8000005eb007a28e100c6
:100620000a00390006007800c75ddd00f707b20058
:10063000878075002d003700828171000a017800e3
:10064000610560008180d1000080d3008502e9004f
:10065000f9ff3b00060440008784480002003b008d
:1006600060041400e0841c000988a3000700320025
:100670008a81710082817100610164008904d10066
:100680000884d3008b05e800170037000978a30021
:1006900013003a000b00e000130034008b05e90062
:1006a0000804440089844c000a4474000978a300bb
:1006b0000d003a000b00e000070034008b05e90054
:1006c0000804440089844c0001003a000b0020001b
:1006d0000978a300f7ff32000001eb0002003700a9
:1006e000828171000a017800910007000cf0a700d8
:1006f00001f0a000da0037006420e10002003a00b7
:10070000838f6c00da0033000801be000200be00d7
:10071000d3003700889fbe008a9fbe008c1f7800e0
:10072000be000700c500330003866c006450e10082
:100730002e0032006420e100330032006150e100fd
:100740002f0032006120e100310032008585550024
:10075000eb07b00009002000080420000500370066
:100760000804440089844c000a0031000603430059
:1007700087834b000001530081815b00f8ff330049
:100780000203be000800a0000804440089844c0055
:10079000f6ff3900c639dd00830173000100320025
:1007a000130020008904d1000884d3000998a30015
:1007b000050032000800a7000300a0008904d10052
:1007c0000884d3008b05e8008904d1000884d30095
:1007d0000001eb000281d2005500070001f0a100ea
:1007e0000cf0a70001f0a0009d0037006420e1009c
:1007f0009f0032000801be000200be00f7ff370074
:100800006120e1009a0032006000b800f3ff370079
:100810000000200001f82700f0ff3700140020003e
:10082000f5013700f4ff2f00f30137000003be008d
:10083000650007006011b8000470a70007f0a10070
:1008400007f8a30017003a006509b1000d00320057
:100850000d003500860220000628e1000300350067
:10086000030028006000b8000200050000004000fe
:100870008180480002014900838149008502e90026
:10088000faff3a0000000600f88f4200050034002d
:100890008100d1000080d3008502e800fcff3a000f
:1008a000000006006011b8008000eb0000000500a9
:1008b0000001be00440007000470a70003f0a1007f
:1008c00003f8a30013003a006509b10010003200dc
:1008d000090035006928e100020035000100280008
:1008e0000000050000004000818048008502e9000a
:1008f000fcff3a0000000600f88f420005003500ba
:100900008100d1000080d3008502e800fcff3a009e
:10091000000006008000eb00000005004f89de00ab
:1009200082017800cf0137006011b800dd01370087
:1009300081002000618055000b003d000b0020006d
:1009400061fe2f000100e1001d0034008281710072
:10095000610164008904d1000884d3000000e8002c
:10096000faff3a007100200061006400030070008b
:10097000020060000900320061044400e0844c0081
:100980000988a500050032008b05e8006808e10031
:1009900002003a008904d1000884d300f20f20003d
:1009a0000258e10005003d00c75ddd00f907b20017
:1009b0008980750008007800000006000bf8270009
:1009c0008b00780000000500c70ade00f107b200c6
:1009d000f50fb20008003200e1cf42000200320001
:1009e0000170a00024000500810f7000010032009a
:1009f0000408050044000500810f700002003a0061
:100a0000140005008502e9000000400081c0480094
:100a1000fcff3b000170a000240005000004be00a4
:100a2000e9ff07000003be000405be000200be008f
:100a3000e5ff0700844f7500000006000200be00bd
:100a40006450e100050036006420e1000200360039
:100a50000968a30001003a000800be000160a00080
:100a60004f0678004f05be004f04be000000060090
:100a7000f0ff2f00f1ff2700f9ff3700889fbe002d
:100a80008a9fbe008c1f7800e4ff0700ebff330055
:100a900003866c006450e100240032006420e10011
:100aa000270032006150e100220032006120e100a5
:100ab000210032008b854200eb07b1000134b80001
:100ac000003ab8000804420089844a00013ab8009c
:100ad0000030b8008880400009014a00040033005b
:100ae0000000400081804800020149008b05e900b8
:100af000c909dd00830170000100320013002000ed
:100b0000c814de004814dd004709de001200b20000
:100b1000c808de000884700085ff070001f0a1000e
:100b20000cf0a70001f0a000cdff37006120e1002c
:100b3000cfff32000801be000200be00f7ff370001
:100b40006150e100fcff3a00c9ff3700889fbe00fa
:100b50008a9fbe0030044200b0844a0030054b003a
:100b600090854b006000b1000898be000a90be005e
:100b70000440e10005c8e10006d0e10007d8e1002b
:100b800002003100680040001008e8004f05be0078
:100b90004f04be0000000600889fbe008a9fbe0072
:100ba0003004be002005be000418540005985c0007
:100bb00006185d0007985d00110020000440e10068
:100bc00005c8e10006d0e10007d8e10001003900c6
:100bd0008000eb00108810004f05be004f04be00df
:100be000000006001200fa00889fbe008a9fbe0027
:100bf0008c9fbe00e0b79f00f1b79f0082bf9f00af
:100c000093bf9f000605be000404be000000eb0079
:100c1000d0b79f00c0b79f00b0b79f00a0b79f009c
:100c200090b79f000006eb005fb19700cfb0970030
:100c3000820141003fb097000200e00004003d0047
:100c4000370007007e805700c0ff07000300370011
:100c5000330007007e805700cfff0700dfb6970004
:100c60000d00e0000c0035006fb29700ffb2970056
:100c70000fbb97009fbb97001000200001002000d1
:100c80006011b800000272008182720002037300da
:100c9000838373001b0007000c06e800010420009a
:100ca000810f5600e0ff3a000d00e00004003d0017
:100cb0000802be000a03be007e805700a3ff0700a3
:100cc0005fa897000000e00005003a001fb29700ff
:100cd000afb297003fb39700cfb39700090007006a
:100ce0006fb09700ffb097000fb997009fb99700ba
:100cf0004f06be004f05be004f04be000080fa0044
:100d0000000006000100070000000600a4b79f00d5
:100d1000b5b79f00c6b79f00d7b79f000000060079
:100d20004f09de0082817100b3b79f004f01de00e2
:100d30008180400082807000a1b79f008fb0970033
:100d40004f09de00000040000200700090b79f00d5
:100d50007fa897004f01de008180400082807000f4
:100d600081b79f000d0007004f3ade0000004000f1
:100d700004007000f0af9f0008000700040242006a
:100d800085824a0006034b0087834b00dfff070084
:100d90000802be000a03be00000006002fb2970042
:100da000bfb297004fb39700dfb397000000060073
:100db000881f780018002000881f780089ff07002e
:100dc0008f87e9004f04780000000600801feb00c9
:100dd00084ff07008f87e90000000600889fbe009f
:100de0008a9fbe00e00f5000e08f5800e00f5900ce
:100df000e08f59000c003d006044b8006055b80019
:100e00000000540081805c0002015d0083815d0070
:100e1000180020001500070008003d00180007001a
:100e20000004eb00050037000004eb000f00070092
:100e300002003d001200070018002000dcff070040
:100e40000800e000060032006022b8006033b800fd
:100e50000000520081805a0002015b0083815b0028
:100e60004f05be004f04be0000000600e00f520018
:100e7000e08f5a00e00f5b00e08f5b00000006008f
:100e80006044b8006055b8000402540085825c00dc
:100e900006035d0087835d0000000600889fbe009a
:100ea0008a9fbe008c1f7800e00f5000e08f580032
:100eb000e00f5900e08f59000d003d006044b8007c
:100ec0006055b8000000540081805c0002015d00a4
:100ed00083815d001c0020000820e10009a8e100da
:100ee0000ab0e1000bb8e1000d003d00080037003a
:100ef0000006eb00e00f5200e08f5a00e00f5b00ad
:100f0000e08f5b0006003d006044b8006055b8000b
:100f10000402540085825c0006035d0087835d0047
:100f2000aaff07000c00e000060032006022b800b3
:100f30006033b8000000520081805a0002015b005b
:100f400083815b004f0678004f05be004f04be0052
:100f500000000600889fbe008a9fbe008c1f78009c
:100f60000006eb00e00f5000e08f5800e00f590042
:100f7000e08f590007003d006044b8006055b8009c
:100f80000000540081805c0002015d0083815d00ef
:100f90001c002000e00f5200e08f5a00e00f5b00c1
:100fa000e08f5b0007003d006044b8006055b8006a
:100fb0000402540085825c0006035d0087835d00a7
:100fc0000c00a200660007000c00e00006003200e2
:100fd0006022b8006033b8000000520081805a00df
:100fe00002015b0083815b004f0678004f05be0065
:100ff0004f04be0000000600889fbe008a9fbe000e
:10100000841f780085fe07004f0078001100330030
:10101000f0ff2f00838f6c0006003b000405650085
:101020000a00a7000800370009f0a6001000200001
:1010300008003700820f5400838f5c0003003900e2
:101040001000200001003e000000200009f0a70071
:101050000000ea004f05be004f04be000000e000a3
:1010600000000600881f7800030478000300e000f9
:1010700007003d0060001000e080180060011900ca
:10108000e081190002003b0001f02d000300370051
:101090000400070008f0a70001f0a0004f0478004a
:1010a00000000600889fbe008a9fbe00008270007c
:1010b0000402710004827100260032000004be00a8
:1010c0000200be006011b8006b09200095022000ec
:1010d0000182cf000a0039000541b1000082cf0033
:1010e000070039000541b1000982cf000400390032
:1010f0000541b1000882cf00010039000541b1006f
:1011000005425200120032000a003b008281710049
:10111000610164008100d1000080d3008984d30084
:101120000884d3008b05e8000442e800f7ff3a008a
:10113000070037000804440089844c000000480080
:10114000818048008b05e9000442e900f9ff3a007c
:10115000f7fd07004f05be004f04be00000006006b
:10116000889fbe008a9fbe008c9fbe000404b8000a
:101170000506b8008904460060854e000606b800e2
:101180000a054600e0854e000706b8008b054600bc
:10119000040eb800890446000a854e00e0854d0023
:1011a000050eb8000a0546008b854e00060eb800f5
:1011b0008b0546000416b8000a0546008b854e00d4
:1011c0000516b8008b054600041eb8008b054600c6
:1011d0000800be000a01be004f06be004f05be005b
:0811e0004f04be0000000600f0
:020000040000fa
:1011e8000000fa00881f7800213a8000f08f2f0055
:1011f800008060000090a000203a88002b030700c0
:10120800390307006d0307004603070000002000ac
:10121800812424009c04070000002000812424006d
:101228009904070000002000812424009604070088
:10123800ee03070005040700430407001204070033
:10124800a01880008000eb00b5fd07007041880001
:101258008141880070418000814180009041880070
:10126800a14188000200200003f8230060c4b300f5
:101278004304070000a8210061002000b304070010
:101288000200200003f8230020c4b30092030700e3
:10129800006c2b0061002000ac0407000200200055
:1012a80003f82300c0c4b30035040700a018800069
:1012b8008000eb009afd070070418800814188009a
:1012c80005003700a01880008000eb0094fd07009f
:1012d8007041880081418800a0408000cf80de00f6
:1012e8008cfd07000002be00704180008141800033
:1012f80018c0b3000001be000400be0047fd07008f
:101308000000e00001003c000044eb000804e0009d
:10131800ecff3a000200200003f82300c0c4b30029
:10132800380407000200200003f8230020c5b3009a
:101338001304070000162000210120008304070081
:1013480001003700000000000200200003f823001d
:1013580020c4b3000a04070000382100c10120009e
:101368007a040700a299290093f1230020c4b3004e
:10137800030407006000b80020418800314188005c
:101388000700370020418000314180000200200022
:1013980003f8230080fc07002041880031418800c1
:1013a80010168000680060000000e000f5ff3200c1
:1013b800204180003141800018c0b30002002000a5
:1013c800a357240013fd07000000e00001003500ca
:1013d8000044eb000804e000eaff3a00a299290063
:1013e80093f1230020c4b3000604070092c225002d
:1013f800f3d82300c0c4b300e103070000d42000e1
:10140800310020005104070092c22500f3d82300c0
:1014180020c5b300da03070000d420003100200003
:101428004a04070092c22500f3d8230020c4b30061
:10143800d303070000d42000310020004304070034
:101448006a0307006000b800204188003141880025
:1014580017003700c402a80092c22500f3d8230061
:1014680020c4b3001c03070000e42700510020003b
:1014780036040700c402a90092c22500f3d823004d
:1014880060c4b300140307000010270021002000e7
:101498002e04070020418000314180000200200016
:1014a80003f823003cfc07002041880031418800f4
:1014b800204180003141800018c0b30002002000a4
:1014c80003102400d3fc07000000e00001003500f1
:1014d8000044eb000804e000deff3a0040188000fa
:1014e8008000eb000efd0700d0418800e141880034
:1014f800d0418000e141800018c0b3000200200004
:10150800a3572400c5fc07000000e00001003c00d0
:101518000044eb000804e000020032003e28ef001f
:1015280004003700b0002000804088001000200030
:10153800f04188000200200003f8230060c4b300d3
:101548008f03070000482800e1012000ff0307007f
:101558002c28ef000200200003f8230060c4b30029
:10156800a80307004a023700a01880008000eb009b
:10157800ebfc0700704188008141880090188000ca
:101588008000eb00e6fc0700b0418800c1418800fc
:10159800a0408000cf80de00defc07000002be0015
:1015a800704180008141800018c0b3000001be0076
:1015b8000400be0097fc07000000e00001003500b1
:1015c8000044eb000804e00042003200d0c4b3003d
:1015d80022e8b70000c4290001002000db0307004f
:1015e800d2cc2c00c3f4230060042000ff020700c3
:1015f800a01880008000eb00c9fc0700704188003b
:1016080081418800a0408000cf80de00c1fc070037
:101618000002be00704180008141800018c0b30004
:101628000001be000400be007cfc07000000e000d2
:1016380001003c000044eb000804e00077003200a1
:101648003233230033f3230020c5b300a20207007e
:1016580000c4290001002000bc030700e3020700c2
:10166800a01880008000eb00adfc070070418800e6
:1016780081418800a0408000cf80de00a5fc0700e3
:101688000002be00704180008141800018c0b30094
:101698000001be000400be0060fc07000000e0007e
:1016a80001003c000044eb000804e0005b0032004d
:1016b8003233230033f3230070c3b30086020700dc
:1016c8000088230011002000a0030700c7020700bc
:1016d80052003700a0408000cf80de008dfc07005c
:1016e8000002be00b0418000c141800018c0b300b4
:1016f8000001be000400be0046fc07000000e00038
:10170800010035000044eb000804e000220032002c
:10171800c0c4b30022e8b7003233230033f32300f8
:1017280020c5b3006c02070000d82600d1002000b5
:1017380086030700a01880008000eb0078fc0700f3
:101748007041880081418800a0408000cf80de0081
:1017580070fc07000002be007041800081418000db
:1017680018c0b3000001be000400be002bfc070037
:101778000000e00001003c000044eb000804e00029
:101788000300320000c42900010020006f03070095
:10179800960207002100370020c5b30022e8b700f1
:1017a8003233230033f32300c0c4b3004a020700d6
:1017b80000d82600d100200064030700a01880008c
:1017c8008000eb0056fc07007041880081418800ca
:1017d800a0408000cf80de004efc07000002be0063
:1017e800704180008141800018c0b3000001be0034
:1017f8000400be0009fc07000000e00001003c00f6
:101808000044eb000804e0000300320000c4290093
:10181800010020004d03070074020700a018800093
:101828008000eb003efc0700704188008141880081
:10183800a0408000cf80de0036fc07000002be001a
:10184800704180008141800018c0b3000001be00d3
:101858000400be00effb07000000e00001003500b7
:101868000044eb000804e0001b0132006000b800ef
:1018780020418800314188006000b800404188005c
:10188800514188007041800081418000904188006a
:10189800a1418800a01880008000eb0020fc070010
:1018a8007041880081418800d2cc2c00c3dc230021
:1018b800c0c4b30008020700090037007041800067
:1018c8008141800090418800a1418800a0188000d3
:1018d8008000eb0012fc07007041880081418800fd
:1018e800a0408000cf80de000afc07000002be0096
:1018f800704180008141800018c0b3000001be0023
:101908000400be00c5fb07000000e00001003c0029
:101918000044eb00084078000004a2000004e00046
:10192800e6ff3a00a0408000cf80de00f9fb070008
:101938000002be0090418000a141800018c0b300a1
:101948000001be000400be00b2fb07000000e0007a
:10195800010035000044eb00084078000004a200b4
:101968000004e000d5ff3a00d2cc2c00c3dc2300f1
:1019780020c5b300d8010700004c2d00110020003d
:10198800f20207001000370070418000814180009a
:1019980090418800a1418800a01880008000eb00d9
:1019a800dffb0700704188008141880020418000ea
:1019b800314180000200200003f82300f6fa0700f6
:1019c8002041880031418800a0408000cf80de009f
:1019d800d0fb07000002be007041800081418000fa
:1019e80018c0b3000001be000400be008bfb070056
:1019f8000000e00001003c000044eb0008407800d3
:101a08000004a2000004e000dfff3a00a0408000cc
:101a1800cf80de00bffb07000002be0090418000bf
:101a2800a141800018c0b3000001be000400be0040
:101a380078fb07000000e000010035000044eb00df
:101a4800084078000004a2000004e000ceff3a003d
:101a5800d2cc2c00c3dc2300c0c4b3009e01070015
:101a680007003700404180005141800002002000fb
:101a780003f82300c8fa0700404188005141880054
:101a88002041800031418000020020000300240032
:101a98001efb07000002be0040418000514180004b
:101aa80018c0b3000001be000400be005bfb0700c5
:101ab8000000e00001003c000044eb000804e000e6
:101ac800e8ff3a00c9010700218220009140780010
:101ad800d0c4b30080cf500008003a00d2cc2c000c
:101ae800c3dc2300c0c4b3007b01070000882300c7
:101af8001100200095020700bc0107002182200088
:101b080091407800c0c4b30080cf500008003a006c
:101b1800d2cc2c00c3dc230020c5b3006e01070023
:101b2800008823001100200088020700af01070089
:101b3800a099290091e92300b301070000a821001a
:101b480061002000810207006066260061f623001c
:101b5800ad01070000502300c10020007b020700f0
:101b68006000b800204188003141880048003700f3
:101b7800bd010700004c2d00110020007302070072
:101b8800c101070000b82800810020006f0207008b
:101b9800401880008000eb0061fb0700d0418800fe
:101ba800e1418800d0418000e141800018c0b300c5
:101bb80002002800d356240018fb07000000e000ac
:101bc80001003c000044eb000804e000290032005a
:101bd800d0418000e141800018c0b300020020001d
:101be800a35724000bfb07000000e00001003500ac
:101bf8000044eb000804e0001e003200a29929000e
:101c080093e9230020c5b300dd01070000a82100e7
:101c1800610020004d020700a299290093e92300e2
:101c280020c5b300f701070000a8210061002000cb
:101c3800460207008c010700004c2d00110020000f
:101c48004202070090010700a299290093e92300a6
:101c5800c0c4b300ca01070000a821006100200029
:101c68003a020700a299290093e92300c0c4b300ef
:101c7800e40107002041800031418000020020007b
:101c880003f8230044fa0700204188003141880006
:101c980080408000cf80de001efb07000002be00ef
:101ca800204180003141800018c0b3000001be000f
:101cb8000400be00d9fa07000000e00001003c0063
:101cc8000044eb000804e000a9ff3a005f010700a8
:101cd8003e28ef0003003700604180000000e80064
:101ce800604188002182200091407800c0c4b30080
:101cf80080cf50000c003a003233230033f3230026
:101d0800c0c4b300f400070000422f00e100200027
:101d18000e0207003233230033f32300c0042000ef
:101d2800320107001000370021822000914078001e
:101d380020c5b30080cf50000b003a003233230097
:101d480033f3230020c5b300e300070000422f004f
:101d5800e1002000fd0107003233230033f32300a4
:101d6800200520002101070060418000e20f50009b
:101d7800470034000200200003f8230020c4b30009
:101d88007f01070000382100c1012000ef01070092
:101d9800a299290093f1230020c4b3007801070019
:101da8006000b800204188003141880007003700f2
:101db80020418000314180000200200003f8230008
:101dc800f5f907002041880031418800101680008d
:101dd800680060000000e000f5ff3200204180004c
:101de8003141800018c0b30002002000a35724002e
:101df80088fa07000000e000010035000044eb000d
:101e08000804e000eaff3a00a299290093f12300b0
:101e180020c4b3007b01070092c22500f3d8230039
:101e2800c0c4b3005601070000d4200031002000d0
:101e3800c601070092c22500f3d8230020c5b300cd
:101e48004f01070000d4200031002000bf01070027
:101e580092c22500f3d8230020c4b300480107002c
:101e680000d4200031002000b8010700df0007007f
:101e78000200200003f8230060c4b30040010700fb
:101e880000582f0001022000b00107002c28ef00a5
:101e9800f04180000000e0002afd3200604180002f
:101ea800e20f5000b0fd340027fd37000000fa00b3
:101eb800c002a900c022a900c802a900c822a9001e
:101ec800c842a800c042a900c062a800c0c2a900b8
:101ed800c982a900c9a2a900c9c2a800c9e2a8006c
:101ee8000080fa00000006000000fa00e004a900e3
:101ef800e024a900e204a900e224a900e244a80021
:101f0800e044a900e064a900e284a900e384a900f0
:101f1800e3a4a900e3c4a800e3e4a8000080fa0051
:101f2800000006000000fa00111a8000f0ff2300ec
:101f380000806000101a880043a3a90020c0b300e5
:101f480044e3b700011a8000f0f02f0080806000a1
:101f58000007200001007000001a88004043a80014
:101f6800211a8000f00f2e00008060000080a00081
:101f7800201a88004343a8005083a8005123a800d2
:101f88005143a8004143a800011a8000f0cf2f0058
:101f980000806000001a88004363a800111a8000be
:101fa80030f82f00008060000030a000101a880070
:101fb80041e3a8000080fa00000006000000fa00d3
:101fc8009021ef009221ef00004080001140800036
:101fd80035fa070000007800b00c88000040800047
:101fe800114080000001be006bf907002efa0700bf
:101ff80000007800a00c8800810c800000c021003f
:1020080001007000800c8800900c8000f001b30083
:10201800900c880092e1a900810c800080ff2f00bd
:10202800008060006000b300800c88009a21ef00f7
:102038009c21ef00a021ef0000322000f00c880066
:10204800d10c800000c0210001007000d00c880075
:10205800e00c8000f001b300e00c88009ce1a900ce
:10206800d10c800080ff2f00008060006000b3006a
:10207800d00c8800a421ef00a621ef00aa21ef00d0
:1020880020408000314080000001be0042f9070076
:1020980005fa070000007800400d8800210d800037
:1020a80000c0210001007000200d8800300d800064
:1020b800f001b300300d8800a6e1a900210d8000d1
:1020c80080ff2f00008060006000b300200d8800b2
:1020d8000080fa00000006000600fa00004f7800b1
:1020e80012079800230798001e00fb0061042000d7
:1020f800810f50000e00320061042000810f500053
:1021080004003c0021042000810f50000b00320025
:1021180013003700c1042000810f50000a0032006c
:1021280021052000810f50000a0032000c00370002
:10213800cda2a900cd82a9000b003700cda2a8002e
:10214800cd82a80008003700cda2a800cd82a90042
:1021580005003700cda2a900cd82a80002003700f3
:1021680022000700000000001e019000ae01900050
:102178000000200001f8230064f907000002be00f7
:1021880000408000114080000001be000400be0035
:1021980038fa0700c4f9070000007800b00c88007e
:1021a8001e019000ae0190000000200001f82300fd
:1021b80056f907000002be00004080001140800070
:1021c8000001be000400be002afa07000001be009c
:1021d800f1f80700b4f9070000007800a00c8800a7
:1021e800c442a8000080fa00000006000000fa00bf
:1021f800c442a9009621ef00f0702200a00c8800cc
:102208000080fa00000006000400fa00008fbe00fb
:1022180020408000314080001e01be0015fa0700f2
:10222800a1f9070000007800500d880020408000c8
:10223800314080009cf9070000007800400d8800bc
:10224800cc22a8000080fa00000006000000fa0076
:10225800cc22a900aa21ef00f0702200400d8800ce
:102268000080fa00000006000000fa00cc02a80076
:10227800a0322000000d880000642000f00c8800c7
:102288000080fa00000006000000fa00cc02a80056
:10229800a021ef0000642000f00c88000080fa0004
:1022a800000006000200fa00004f78001e00fb0044
:1022b800d1042000810f50001000320021052000b9
:1022c800810f500008003200c1042000810f500027
:1022d8000f003a0000002c00a14d24006040880047
:1022e800714088000b00370000002400c149240019
:1022f8006040880071408800060037000000280010
:10230800b14b24006040880071408800010037000c
:1023180000000000604080007140800062f9070002
:1023280000007800000d8800404080005140800087
:102338005df9070000007800f00c8800cc02a800c6
:102348000080fa00000006000000fa0060408000eb
:102358007140800054f9070000007800000d8800e3
:1023680040408000514080004ff90700000078008d
:10237800f00c8800cc02a9000080fa0000000600da
:102388000a00fa00881f7800404798003207980032
:10239800430798006000b800008fbe0008003700af
:1023a800a2702d0033c223001e00be007af8070079
:1023b800008fbe001e01be004e40900046ff070081
:1023c80018c0b3003e019000ce0190001e00be0070
:1023d80010f907000000e000010035000044eb00a0
:1023e8000804e000eeff3a003e019000ce019000a4
:1023f8004e40900038ff07004f0478000080fa0034
:10240800000006000a00fa00881f7800404798007c
:1024180032079800430798003e019000ce019000d3
:10242800028fbe00080037001e01be004e4090001b
:1024380029ff0700a2702d0033c223001e00be0032
:1024480054f80700008fbe0018c0b3006011b80030
:102458001e00be00f1f807000000e00001003c008b
:102468000044eb000804e000efff3a006011b800f8
:102478004e40900018ff07005cff07004f047800eb
:102488000080fa00000006000400fa00008fbe0079
:10249800c402a8001e00be00e2f807000490200055
:1024a800d50320006033b800a8fa0700843e200056
:1024b800050020006033b8003bfa07000000be00aa
:1024c80022000700c402a9001e00be00d5f80700bc
:1024d80004902000d50320006033b8009bfa070061
:1024e800843e2000050020006033b8002efa070063
:1024f8000000be00150007000080fa00000006007a
:020000040000fa
:102508000008000024000000020000000000fa009b
:1025180044000000fa440000409c46000080bb00d4
:10252800440b00000008200003530d00700d350017
:102538000f9c0f00ab0fb5000f4d000024080000e2
:0c2548001c00000000000000000000006b
:020000040000fa
:10255400f03fb1000180b10006003500ee03090030
:1025640000000000403fb1000180b100fbff3d00ce
:102574001000b000203fb0000200350000800900c8
:08258400000000000000060049
:020000040000fa
:0200000401f009
:04000c00dfff000012
:020000040000fa
:0200000401f009
:04001000fbff0000f2
:020000040000fa
:0200000401f009
:040014005fff00008a
:020000040000fa
:0200000401f009
:04001c00fdff0000e4
:00000001FF
