:020000040000fa
:080000000002040000000000f2
:020000040000fa
:04000800a003000051
:020000040000fa
:04000c00a00300004d
:020000040000fa
:04001000a003000049
:020000040000fa
:04001400a003000045
:020000040000fa
:04001800a003000041
:020000040000fa
:04001c00a00300003d
:020000040000fa
:04002000a003000039
:020000040000fa
:04002400a003000035
:020000040000fa
:04002800a003000031
:020000040000fa
:04002c00a00300002d
:020000040000fa
:04003000a003000029
:020000040000fa
:04003400fa020000cc
:020000040000fa
:04003800a003000021
:020000040000fa
:04003c00a00300001d
:020000040000fa
:04004000a003000019
:020000040000fa
:04004400a003000015
:020000040000fa
:04004800a003000011
:020000040000fa
:04004c00a00300000d
:020000040000fa
:04005000a003000009
:020000040000fa
:04005400a003000005
:020000040000fa
:04005800a003000001
:020000040000fa
:04005c00a0030000fd
:020000040000fa
:04006000a0030000f9
:020000040000fa
:04006400a0030000f5
:020000040000fa
:04006800a0030000f1
:020000040000fa
:04006c00a0030000ed
:020000040000fa
:04007000a0030000e9
:020000040000fa
:04007400c8020000be
:020000040000fa
:04007800a0030000e1
:020000040000fa
:04007c00a0030000dd
:020000040000fa
:04008000a0030000d9
:020000040000fa
:04008400a0030000d5
:020000040000fa
:04008800a0030000d1
:020000040000fa
:04008c00a0030000cd
:020000040000fa
:04009000a0030000c9
:020000040000fa
:04009400a0030000c5
:020000040000fa
:04009800a0030000c1
:020000040000fa
:04009c00a0030000bd
:020000040000fa
:0400a000a0030000b9
:020000040000fa
:0400a400a0030000b5
:020000040000fa
:0400a800a0030000b1
:020000040000fa
:0400ac00a0030000ad
:020000040000fa
:0400b000a0030000a9
:020000040000fa
:0400b400a0030000a5
:020000040000fa
:0400b800a0030000a1
:020000040000fa
:0400bc00a00300009d
:020000040000fa
:0400c000a003000099
:020000040000fa
:0400c400a003000095
:020000040000fa
:0400c800a003000091
:020000040000fa
:0400cc00a00300008d
:020000040000fa
:0400d000a003000089
:020000040000fa
:0400d400a003000085
:020000040000fa
:0400d800a003000081
:020000040000fa
:0400dc00a00300007d
:020000040000fa
:0400e000a003000079
:020000040000fa
:0400e400a003000075
:020000040000fa
:0400e800a003000071
:020000040000fa
:0400ec00a00300006d
:020000040000fa
:0400f000a003000069
:020000040000fa
:0400f400a003000065
:020000040000fa
:0400f800a003000061
:020000040000fa
:0400fc00a00300005d
:020000040000fa
:04010000a003000058
:020000040000fa
:04010400a003000054
:020000040000fa
:04010800a003000050
:020000040000fa
:04010c00a00300004c
:020000040000fa
:04011000a003000048
:020000040000fa
:04011400a003000044
:020000040000fa
:04011800a003000040
:020000040000fa
:04011c00a00300003c
:020000040000fa
:04012000a003000038
:020000040000fa
:04012400a003000034
:020000040000fa
:04012800a003000030
:020000040000fa
:04012c00a00300002c
:020000040000fa
:04013000a003000028
:020000040000fa
:04013400a003000024
:020000040000fa
:04013800a003000020
:020000040000fa
:04013c00a00300001c
:020000040000fa
:04014000a003000018
:020000040000fa
:04014400a003000014
:020000040000fa
:04014800a003000010
:020000040000fa
:04014c00a00300000c
:020000040000fa
:04015000a003000008
:020000040000fa
:04015400a003000004
:020000040000fa
:04015800a003000000
:020000040000fa
:04015c00a0030000fc
:020000040000fa
:04016000a0030000f8
:020000040000fa
:04016400a0030000f4
:020000040000fa
:04016800a0030000f0
:020000040000fa
:04020800a00300004f
:020000040000fa
:04020c00a00300004b
:020000040000fa
:04021000a003000047
:020000040000fa
:04021400a003000043
:020000040000fa
:04021800a00300003f
:020000040000fa
:04021c00a00300003b
:020000040000fa
:04022000a003000037
:020000040000fa
:04022400a003000033
:020000040000fa
:04022800a00300002f
:020000040000fa
:04022c00a00300002b
:020000040000fa
:04023000a003000027
:020000040000fa
:04023400a003000023
:020000040000fa
:04023800a00300001f
:020000040000fa
:04023c00a00300001b
:020000040000fa
:04024000a003000017
:020000040000fa
:04024400a003000013
:020000040000fa
:04024800a00300000f
:020000040000fa
:04024c00a00300000b
:020000040000fa
:04025000a003000007
:020000040000fa
:04025400a003000003
:020000040000fa
:04025800a0030000ff
:020000040000fa
:04025c00a0030000fb
:020000040000fa
:04026000a0030000f7
:020000040000fa
:04026400a0030000f3
:020000040000fa
:04026800a0030000ef
:020000040000fa
:04026c00a0030000eb
:020000040000fa
:04027000a0030000e7
:020000040000fa
:04027400a0030000e3
:020000040000fa
:04027800a0030000df
:020000040000fa
:04027c00a0030000db
:020000040000fa
:04028000a0030000d7
:020000040000fa
:04028400a0030000d3
:020000040000fa
:04028800a0030000cf
:020000040000fa
:04028c00a0030000cb
:020000040000fa
:04029000a0030000c7
:020000040000fa
:04029400a0030000c3
:020000040000fa
:04029800a0030000bf
:020000040000fa
:04029c00a0030000bb
:020000040000fa
:0402a000a0030000b7
:020000040000fa
:0402a400a0030000b3
:020000040000fa
:0402a800a0030000af
:020000040000fa
:0402ac00a0030000ab
:020000040000fa
:0402b000a0030000a7
:020000040000fa
:0402b400a0030000a3
:020000040000fa
:0402b800a00300009f
:020000040000fa
:0402bc00a00300009b
:020000040000fa
:0402c000a003000097
:020000040000fa
:0402c400a003000093
:020000040000fa
:0402c800a00300008f
:020000040000fa
:0402cc00a00300008b
:020000040000fa
:0402d000a003000087
:020000040000fa
:0402d400a003000083
:020000040000fa
:0402d800a00300007f
:020000040000fa
:0402dc00a00300007b
:020000040000fa
:0402e000a003000077
:020000040000fa
:0402e400a003000073
:020000040000fa
:0402e800a00300006f
:020000040000fa
:0402ec00a00300006b
:020000040000fa
:0402f000a003000067
:020000040000fa
:0402f400a003000063
:020000040000fa
:0402f800a00300005f
:020000040000fa
:0402fc00a00300005b
:020000040000fa
:04030000a003000056
:020000040000fa
:04030400a003000052
:020000040000fa
:04030800a00300004e
:020000040000fa
:04030c00a00300004a
:020000040000fa
:04031000a003000046
:020000040000fa
:04031400a003000042
:020000040000fa
:04031800a00300003e
:020000040000fa
:04031c00a00300003a
:020000040000fa
:04032000a003000036
:020000040000fa
:04032400a003000032
:020000040000fa
:04032800a00300002e
:020000040000fa
:04032c00a00300002a
:020000040000fa
:04033000a003000026
:020000040000fa
:04033400a003000022
:020000040000fa
:04033800a00300001e
:020000040000fa
:04033c00a00300001a
:020000040000fa
:04034000a003000016
:020000040000fa
:04034400a003000012
:020000040000fa
:04034800a00300000e
:020000040000fa
:04034c00a00300000a
:020000040000fa
:04035000a003000006
:020000040000fa
:04035400a003000002
:020000040000fa
:04035800a0030000fe
:020000040000fa
:04035c00a0030000fa
:020000040000fa
:04036000a0030000f6
:020000040000fa
:04036400a0030000f2
:020000040000fa
:04036800a0030000ee
:020000040000fa
:100400002f8320000eff20000e0188000000000056
:10041000000020000000e000020032000001200087
:100420002002880014000700c70007000000e00059
:1004300003003a00008d2000010020000200370078
:100440000000200001002000810f70000100320038
:1004500014000700000020000000e000020032004d
:100460000000020000000000ac05020000000000d7
:100470000040da000000fe004440a9000000200017
:100480000000e0000300320000002000a00188000e
:100490004440a800000006008a1f78008b1f7800e7
:1004a0000000060091018800800478000000eb0045
:1004b0001a003700e284440032a0b4009905ba0063
:1004c000e284440032a0b4009906ba00e2844400f9
:1004d00032a0b4000006eb00476fde00fd07b2005b
:1004e000636ce10003003a00ebff07000000eb0043
:1004f0000a003700606ce10004003a00005deb0088
:100500008b05e900fdff3e00040037006168e10053
:10051000010032000086eb000b00070019c7ba008b
:100520001905ba000e04e00003003a000a00e000da
:10053000e0ff3a0000000600fe07b2009e018800be
:100540008a047800f5ff3700395dba008b05e900b1
:100550000c003200295dba008b05e900080032006a
:100560000c00e00003003a00e284440032a0b40032
:10057000f5ff370019ddba008b05e900faff3a00f4
:100580008904e800e184440032a0b40000000600c1
:10059000801f78000000fa008660a900d04080002b
:1005a000e20f500009003200e20f500009003e0047
:1005b0000000e00009003200e10f500009003a009d
:1005c00020002000d0408800070037000000000015
:1005d00005003700000000000300370000000000a5
:1005e00001003700000000000080fa004f00780092
:1005f000004006003600f800809fbe00829fbe00cb
:10060000849fbe00869fbe00881f78000000fa000d
:100610008460a900d0408000e20f50003900320011
:10062000e20f500039003600e40f5000390032006c
:10063000e40f500039003100701880008000eb009a
:10064000620007006040880071408800f018800058
:100650008000eb005d00070080408800914088002a
:1006600080418000cf80de00550007000002be0000
:10067000604080007140800018c0b3000001be00df
:100680000400be00310007000000e000010035005a
:100690000044eb000804e0000300320010002000da
:1006a000c04088001400370080418000cf80de0009
:1006b000430007000002be0080408000914080009f
:1006c00018c0b3000001be000400be001f000700f8
:1006d0000000e000010035000044eb000804e000e9
:1006e0000300320020002000c040880002003700d4
:1006f00030002000c040880040002000d04088002a
:10070000070037000000000005003700000000006f
:100710000300370000000000010037000000000067
:100720000080fa004f0478004f03be004f02be0065
:100730004f01be004f00be003600f9000040060029
:100740000040da000000fe00000005001400200058
:10075000690037000001be001e0007000470a700fa
:1007600003f0a10003f8a30013003a006509b100eb
:1007700010003200090035006928e1000200350050
:1007800001002800000005000000400081804800b2
:100790008502e900fcff3a0000000600f88f4200e5
:1007a000050035008100d1000080d3008502e800fb
:1007b000fcff3a00000006008000eb00000005008e
:1007c0004f89de0082017800660037006011b800b2
:1007d00074003700c70ade00f107b200f50fb2005f
:1007e00008003200e1cf4200020032000170a00098
:1007f00024000500810f700001003200040805008c
:1008000044000500810f700002003a00140005004a
:100810008502e9000000400081c04800fcff3b0069
:100820000170a00024000500889fbe008a9fbe00c2
:100830008c1f7800b0000700b700330003866c00ff
:100840006450e100240032006420e10027003200ff
:100850006150e100220032006120e10021003200fd
:100860008b854200eb07b1000134b800003ab800b4
:100870000804420089844a00013ab8000030b800f8
:100880008880400009014a00040033000000400055
:1008900081804800020149008b05e900c909dd009b
:1008a000830170000100320013002000c814de0034
:1008b0004814dd004709de001200b200c808de005f
:1008c000088470006600070001f0a1000cf0a7008a
:1008d00001f0a000990037006120e1009b00320088
:1008e0000801be000200be00f7ff37006150e100c2
:1008f000fcff3a0095003700889fbe008a9fbe002b
:10090000841f78007c0007004f007800110033003e
:10091000f0ff2f00838f6c0006003b00040565008c
:100920000a00a7000800370009f0a6001000200008
:1009300008003700820f5400838f5c0003003900e9
:100940001000200001003e000000200009f0a70078
:100950000000ea004f05be004f04be000000e000aa
:1009600000000600881f7800030478000300e00000
:1009700007003d0060001000e080180060011900d1
:10098000e081190002003b0001f02d000300370058
:100990000400070008f0a70001f0a0004f04780051
:1009a00000000600889fbe008a9fbe000082700083
:1009b0000402710004827100260032000004be00af
:1009c0000200be006011b8006b09200095022000f3
:1009d0000182cf000a0039000541b1000082cf003a
:1009e000070039000541b1000982cf000400390039
:1009f0000541b1000882cf00010039000541b10076
:100a000005425200120032000a003b008281710050
:100a1000610164008100d1000080d3008984d3008b
:100a20000884d3008b05e8000442e800f7ff3a0091
:100a3000070037000804440089844c000000480087
:100a4000818048008b05e9000442e900f9ff3a0083
:100a5000030007004f05be004f04be000000060063
:100a600081002000618055000b003d000b0020003c
:100a700061fe2f000100e1001d0034008281710041
:100a8000610164008904d1000884d3000000e800fb
:100a9000faff3a007100200061006400030070005a
:100aa000020060000900320061044400e0844c0050
:100ab0000988a500050032008b05e8006808e10000
:100ac00002003a008904d1000884d300f20f20000c
:100ad0000258e10005003d00c75ddd00f907b200e6
:100ae0008980750008007800000006000bf82700d8
:100af0008b007800000005000004be0035ff0700f1
:100b00000003be000405be000200be0031ff070066
:100b1000844f7500000006000200be006450e10032
:100b2000050036006420e100020036000968a300d9
:100b300001003a000800be000160a0004f067800e6
:100b40004f05be004f04be0000000600f0ff2f005e
:080b5000f1ff2700f9ff370057
:020000040000fa
:100b58000200fa00213a8000f08f2f000080600028
:100b68000090a000203a880068000700760007007f
:100b780084000700c8000700a1000700100020003b
:100b8800d040880000b02100710b200074010700dc
:100b98000000eb00000f7800d0408000e30f500009
:100ba80030003200e30f500005003e00e10f500016
:100bb80012003200e10f500017003e000700370016
:100bc800e50f500041003200e50f50002f003900ba
:100bd800e60f5000430032004b003700a09929006f
:100be80091e923000040880011408800200020007f
:100bf800e04088000501070043003700d0cc2c00f6
:100c0800c1f4230000408800114088001c28ef0030
:100c1800fe0007003c0037000000eb00000f7800e2
:100c280009003700c402a80000402d00010320007d
:100c38004b010700c402a90000402d000103200059
:100c4800470107001e0fe800604180009e00780001
:100c5800808f5000f3ff350030002000d04088001e
:100c680029003700d0cc2c00c1f4230000408800b4
:100c78001140880010002000e0408800e3000700d1
:100c880000e224002f0107001f003700d0cc2c0001
:100c9800c1f4230020408800314088001828ef0064
:100ca800c04080000000e000020032001e28ef0073
:100cb8000400370030002000c040880010002000e9
:100cc800f0408800f80007000f003700d0cc2c0057
:100cd800c1f4230040408800514088000c010700ff
:100ce80009003700c402a80000f8240021012000f0
:100cf8001b010700c402a90000f8240021012000fc
:100d08001701070000000000a3ff37000000fa00e9
:100d1800c002a900c022a900c802a900c822a900cf
:100d2800c842a800c042a800c062a800c0c2a9006a
:100d3800c982a800c9a2a900c9c2a900c9e2a9001c
:100d48000080fa00000006000000fa00e004a90094
:100d5800e024a900e204a900e224a900e244a800d2
:100d6800e044a800e064a900e284a900e384a800a4
:100d7800e3a4a900e3c4a900e3e4a9000080fa0001
:100d8800000006000000fa0005e1a8002108800024
:100d98000003200001007000200888000421a90039
:100da8000021ef0021058000f0ff2800008060008e
:100db80000e0a000200588009460a8008460a900d5
:100dc80000712200100888008460a9006300a80050
:100dd8006f00a90061058000f0ff28008080600096
:100de8000000260001007000600588008660a900e8
:100df8009660a8008660a9000080fa00000006003e
:100e08000000fa00111a8000f0ff23000080600043
:100e1800101a880043a3a90020c0b30044e3b70018
:100e2800011a8000f0f02f00808060000007200089
:100e380001007000001a88004043a800211a8000b1
:100e4800f00f2e00008060000080a000201a8800ab
:100e58004343a8005003a8005023a8005043a8000b
:100e68004143a800011a8000f0cf2f0000806000e5
:100e7800001a88004363a800111a800030f82f0078
:100e880000806000c000b300101a880041e3a80089
:100e98000080fa00000006000000fa009021ef0030
:100ea8009221ef000441800015418000004080003d
:100eb800114080000001be000400be0058fe07007b
:100ec80022fe070000007800b00c88000041800076
:100ed800114180001dfe070000007800a00c88006a
:100ee800810c800000c0210001007000800c880087
:100ef800900c8000f001b300900c880092e1a900ea
:100f0800810c800080ff2f00008060006000b3002b
:100f1800800c88009a21ef009c21ef00244180007a
:100f28003541800020408000314080000001be0033
:100f38000400be003afe070004fe07000000780027
:100f4800000d88002041800031418000fffd07002e
:100f580000007800f00c8800d10c800000c021004f
:100f680001007000d00c8800e00c8000f001b30094
:100f7800e00c88009ce1a900d10c800080ff2f00c4
:100f8800008060006000b300d00c8800a421ef004e
:100f9800a621ef0044418000554180004040800078
:100fa800514080000001be000400be001cfe070086
:100fb800e6fd070000007800500d880040418000e1
:100fc80051418000e1fd070000007800400d8800d5
:100fd800210d800000c0210001007000200d880054
:100fe800300d8000f001b300300d8800a6e1a900a3
:100ff800210d800080ff2f00008060006000b3009a
:10100800200d88000080fa00000006000000fa00a9
:10101800044180001541800000408000114080009c
:101028000001be000400be00fdfd0700c7fd07006b
:1010380000007800b00c8800e0408000e10f50000c
:101048000a003200e10f500005003900e20f50009d
:1010580009003200e30f50000a0032000c0037008c
:10106800cda2a900cde2a9000d003700cda2a800ad
:10107800cde2a8000a003700cda2a800cde2a90061
:1010880007003700cda2a900cde2a8000400370070
:101098006000b8000040880011408800000000008f
:1010a8000080fa00000006000000fa0024418000d9
:1010b8003541800020408000314080000001be00a2
:1010c8000400be00d6fd0700a0fd07000000780060
:1010d800000d8800f04080000000e00007003200aa
:1010e800e10f5000070032006000b800204088007f
:1010f80031408800000000000300370000000000b5
:1011080001003700000000000080fa00000006001f
:101118000000fa00444180005541800040408000b2
:10112800514080000001be000400be00bcfd070065
:1011380086fd070000007800500d88000080fa0046
:10114800000006000200fa00000f78001e00780078
:10115800100888000021ef000080fa000000060057
:020000040000fa
:10116800f03fb1000180b10006003500ee03090030
:1011780000000000403fb1000180b100fbff3d00ce
:101188001000b000203fb0000200350000800900c8
:08119800000000000000060049
:020000040000fa
:1011a00020080000120000000200000000f079009a
:1011b0004500f00079450000f07945000600000088
:1011c00008dc05000008000020000000000000000e
:0411d000000000001b
:020000040000fa
:0200000401f009
:04000c00ffff0000f2
:020000040000fa
:0200000401f009
:04001c00fdff0000e4
:00000001FF
