:020000040000fa
:080000000002040000000000f2
:020000040000fa
:04000800d40300001d
:020000040000fa
:04000c00d403000019
:020000040000fa
:04001000d403000015
:020000040000fa
:04001400d403000011
:020000040000fa
:04001800d40300000d
:020000040000fa
:04001c00d403000009
:020000040000fa
:04002000d403000005
:020000040000fa
:04002400d403000001
:020000040000fa
:04002800d4030000fd
:020000040000fa
:04002c00d4030000f9
:020000040000fa
:04003000d4030000f5
:020000040000fa
:0400340018030000ad
:020000040000fa
:04003800d4030000ed
:020000040000fa
:04003c00d4030000e9
:020000040000fa
:04004000d4030000e5
:020000040000fa
:04004400d4030000e1
:020000040000fa
:04004800d4030000dd
:020000040000fa
:04004c00d4030000d9
:020000040000fa
:04005000d4030000d5
:020000040000fa
:04005400d4030000d1
:020000040000fa
:04005800d4030000cd
:020000040000fa
:04005c00d4030000c9
:020000040000fa
:04006000d4030000c5
:020000040000fa
:04006400d4030000c1
:020000040000fa
:04006800d4030000bd
:020000040000fa
:04006c00d4030000b9
:020000040000fa
:04007000d4030000b5
:020000040000fa
:04007400c8020000be
:020000040000fa
:04007800d4030000ad
:020000040000fa
:04007c00d4030000a9
:020000040000fa
:04008000d4030000a5
:020000040000fa
:04008400d4030000a1
:020000040000fa
:04008800d40300009d
:020000040000fa
:04008c00d403000099
:020000040000fa
:04009000d403000095
:020000040000fa
:04009400d403000091
:020000040000fa
:04009800d40300008d
:020000040000fa
:04009c00d403000089
:020000040000fa
:0400a000d403000085
:020000040000fa
:0400a400d403000081
:020000040000fa
:0400a800d40300007d
:020000040000fa
:0400ac00d403000079
:020000040000fa
:0400b000d403000075
:020000040000fa
:0400b400d403000071
:020000040000fa
:0400b800d40300006d
:020000040000fa
:0400bc00d403000069
:020000040000fa
:0400c000d403000065
:020000040000fa
:0400c400d403000061
:020000040000fa
:0400c800d40300005d
:020000040000fa
:0400cc00d403000059
:020000040000fa
:0400d000d403000055
:020000040000fa
:0400d400d403000051
:020000040000fa
:0400d800d40300004d
:020000040000fa
:0400dc00d403000049
:020000040000fa
:0400e000d403000045
:020000040000fa
:0400e400d403000041
:020000040000fa
:0400e800d40300003d
:020000040000fa
:0400ec00d403000039
:020000040000fa
:0400f000d403000035
:020000040000fa
:0400f400d403000031
:020000040000fa
:0400f800d40300002d
:020000040000fa
:0400fc00d403000029
:020000040000fa
:04010000d403000024
:020000040000fa
:04010400d403000020
:020000040000fa
:04010800d40300001c
:020000040000fa
:04010c00d403000018
:020000040000fa
:04011000d403000014
:020000040000fa
:04011400d403000010
:020000040000fa
:04011800d40300000c
:020000040000fa
:04011c00d403000008
:020000040000fa
:04012000d403000004
:020000040000fa
:04012400d403000000
:020000040000fa
:04012800d4030000fc
:020000040000fa
:04012c00d4030000f8
:020000040000fa
:04013000d4030000f4
:020000040000fa
:04013400d4030000f0
:020000040000fa
:04013800d4030000ec
:020000040000fa
:04013c00d4030000e8
:020000040000fa
:04014000d4030000e4
:020000040000fa
:04014400d4030000e0
:020000040000fa
:04014800d4030000dc
:020000040000fa
:04014c00d4030000d8
:020000040000fa
:04015000d4030000d4
:020000040000fa
:04015400d4030000d0
:020000040000fa
:04015800d4030000cc
:020000040000fa
:04015c00d4030000c8
:020000040000fa
:04016000d4030000c4
:020000040000fa
:04016400d4030000c0
:020000040000fa
:04016800d4030000bc
:020000040000fa
:04020800d40300001b
:020000040000fa
:04020c00d403000017
:020000040000fa
:04021000d403000013
:020000040000fa
:04021400d40300000f
:020000040000fa
:04021800d40300000b
:020000040000fa
:04021c00d403000007
:020000040000fa
:04022000d403000003
:020000040000fa
:04022400d4030000ff
:020000040000fa
:04022800d4030000fb
:020000040000fa
:04022c00d4030000f7
:020000040000fa
:04023000d4030000f3
:020000040000fa
:04023400d4030000ef
:020000040000fa
:04023800d4030000eb
:020000040000fa
:04023c00d4030000e7
:020000040000fa
:04024000d4030000e3
:020000040000fa
:04024400d4030000df
:020000040000fa
:04024800d4030000db
:020000040000fa
:04024c00d4030000d7
:020000040000fa
:04025000d4030000d3
:020000040000fa
:04025400d4030000cf
:020000040000fa
:04025800d4030000cb
:020000040000fa
:04025c00d4030000c7
:020000040000fa
:04026000d4030000c3
:020000040000fa
:04026400d4030000bf
:020000040000fa
:04026800d4030000bb
:020000040000fa
:04026c00d4030000b7
:020000040000fa
:04027000d4030000b3
:020000040000fa
:04027400d4030000af
:020000040000fa
:04027800d4030000ab
:020000040000fa
:04027c00d4030000a7
:020000040000fa
:04028000d4030000a3
:020000040000fa
:04028400d40300009f
:020000040000fa
:04028800d40300009b
:020000040000fa
:04028c00d403000097
:020000040000fa
:04029000d403000093
:020000040000fa
:04029400d40300008f
:020000040000fa
:04029800d40300008b
:020000040000fa
:04029c00d403000087
:020000040000fa
:0402a000d403000083
:020000040000fa
:0402a400d40300007f
:020000040000fa
:0402a800d40300007b
:020000040000fa
:0402ac00d403000077
:020000040000fa
:0402b000d403000073
:020000040000fa
:0402b400d40300006f
:020000040000fa
:0402b800d40300006b
:020000040000fa
:0402bc00d403000067
:020000040000fa
:0402c000d403000063
:020000040000fa
:0402c400d40300005f
:020000040000fa
:0402c800d40300005b
:020000040000fa
:0402cc00d403000057
:020000040000fa
:0402d000d403000053
:020000040000fa
:0402d400d40300004f
:020000040000fa
:0402d800d40300004b
:020000040000fa
:0402dc00d403000047
:020000040000fa
:0402e000d403000043
:020000040000fa
:0402e400d40300003f
:020000040000fa
:0402e800d40300003b
:020000040000fa
:0402ec00d403000037
:020000040000fa
:0402f000d403000033
:020000040000fa
:0402f400d40300002f
:020000040000fa
:0402f800d40300002b
:020000040000fa
:0402fc00d403000027
:020000040000fa
:04030000d403000022
:020000040000fa
:04030400d40300001e
:020000040000fa
:04030800d40300001a
:020000040000fa
:04030c00d403000016
:020000040000fa
:04031000d403000012
:020000040000fa
:04031400d40300000e
:020000040000fa
:04031800d40300000a
:020000040000fa
:04031c00d403000006
:020000040000fa
:04032000d403000002
:020000040000fa
:04032400d4030000fe
:020000040000fa
:04032800d4030000fa
:020000040000fa
:04032c00d4030000f6
:020000040000fa
:04033000d4030000f2
:020000040000fa
:04033400d4030000ee
:020000040000fa
:04033800d4030000ea
:020000040000fa
:04033c00d4030000e6
:020000040000fa
:04034000d4030000e2
:020000040000fa
:04034400d4030000de
:020000040000fa
:04034800d4030000da
:020000040000fa
:04034c00d4030000d6
:020000040000fa
:04035000d4030000d2
:020000040000fa
:04035400d4030000ce
:020000040000fa
:04035800d4030000ca
:020000040000fa
:04035c00d4030000c6
:020000040000fa
:04036000d4030000c2
:020000040000fa
:04036400d4030000be
:020000040000fa
:04036800d4030000ba
:020000040000fa
:100400006f8320000eff20000e0188000000000016
:10041000000020000000e000020032000001200087
:100420002002880014000700e10007000000e0003f
:1004300003003a00e0f42000010020000200370031
:100440000000200001002000810f70000100320038
:1004500014000700000020000000e000020032004d
:100460000000020000000000000a0200000000007e
:100470000040da000000fe004440a9000000200017
:100480000000e0000300320000002000a00188000e
:100490004440a800000006008a1f78008b1f7800e7
:1004a0000000060091018800800478000000eb0045
:1004b0001a003700e284440032a0b4009905ba0063
:1004c000e284440032a0b4009906ba00e2844400f9
:1004d00032a0b4000006eb00476fde00fd07b2005b
:1004e000636ce10003003a00ebff07000000eb0043
:1004f0000a003700606ce10004003a00005deb0088
:100500008b05e900fdff3e00040037006168e10053
:10051000010032000086eb000b00070019c7ba008b
:100520001905ba000e04e00003003a000a00e000da
:10053000e0ff3a0000000600fe07b2009e018800be
:100540008a047800f5ff3700395dba008b05e900b1
:100550000c003200295dba008b05e900080032006a
:100560000c00e00003003a00e284440032a0b40032
:10057000f5ff370019ddba008b05e900faff3a00f4
:100580008904e800e184440032a0b40000000600c1
:100590003600f800809fbe00829fbe00849fbe0090
:1005a000869fbe000000fa008660a90070418000ae
:1005b000e20f50000e003200e20f50000e003e002d
:1005c0000000e0000e003200e10f50000e003a0083
:1005d00010168000680060000000e0000c0032008f
:1005e000dc0507002000200070418800090037006a
:1005f0000000000007003700000000000500370081
:100600000000000003003700000000000100370078
:10061000000000000080fa004f03be004f02be0041
:100620004f01be004f00be003600f900004006003a
:100630003600f800809fbe00829fbe00849fbe00ef
:10064000869fbe00881f78000000fa008460a90021
:1006500070418000e20f500048003200e20f50006d
:1006600048003600e40f50003a003200e40f50001a
:1006700003003900e50f50003c0032004200370013
:10068000b4050700a01880008000eb002c010700d3
:100690001041880021418800901880008000eb0004
:1006a000270107003041880041418800a0408000b8
:1006b000cf80de001f0107000002be001041800055
:1006c0002141800018c0b3000001be000400be003c
:1006d000d80007000000e000010035000044eb00f6
:1006e0000804e000020032003428ef001400370054
:1006f000a0408000cf80de000e0107000002be0097
:10070000304180004141800018c0b3000001be00ac
:100710000400be00c70007000000e0000100350033
:100720000044eb000804e000030032002000200039
:10073000a04188000200370010002000a04188007e
:100740004000200070418800803821007a050700b1
:100750000d003700500020007041880000352c004b
:10076000010020007405070007003700100020007a
:100770007041880000000000030037000000000006
:1007800001003700000000000080fa004f047800ec
:100790004f03be004f02be004f01be004f00be001f
:1007a0003600f900004006000040da000000fe00bc
:1007b0000000050003f0a200889fbe008a9fbe00d3
:1007c0008c1f78001b010700220133006450e100f8
:1007d0004f0032006420e1005200320003826c00be
:1007e00007003b000905d0000306d000820f54002b
:1007f0000c065d0002003900020032008901780019
:10080000030678008582550004003d000003fd00ca
:100810008103fd008502ea008b854200840f72008f
:1008200002003b0060001000e08018006011b8007a
:100830000005eb007a28e1000a0039000600780084
:10084000c75ddd00f707b200878075002d00370017
:10085000828171000a017800610560008180d10009
:100860000080d3008502e900f9ff3b000604400048
:100870008784480002003b0060041400e0841c00f0
:100880000988a300070032008a817100828171000b
:10089000610164008904d1000884d3008b05e8005d
:1008a000170037000978a30013003a000b00e0009e
:1008b000130034008b05e9000804440089844c00cf
:1008c0000a4474000978a3000d003a000b00e00010
:1008d000070034008b05e9000804440089844c00bb
:1008e00001003a000b0020000978a300f7ff320056
:1008f0000001eb0002003700828171000a017800dc
:10090000910007000cf0a70001f0a000da0037000a
:100910006420e10002003a00838f6c00da003300ab
:100920000801be000200be00d3003700889fbe0051
:100930008a9fbe008c1f7800be000700c5003300f0
:1009400003866c006450e1002e0032006420e10058
:10095000330032006150e1002f0032006120e100dd
:100960003100320085855500eb07b00009002000fa
:1009700008042000050037000804440089844c0066
:100980000a0031000603430087834b000001530037
:1009900081815b00f8ff33000203be000800a00065
:1009a0000804440089844c00f6ff3900c639dd0094
:1009b0008301730001003200130020008904d1007c
:1009c0000884d3000998a300050032000800a7009e
:1009d0000300a0008904d1000884d3008b05e8003f
:1009e0008904d1000884d3000001eb000281d20009
:1009f0005500070001f0a1000cf0a70001f0a000d5
:100a00009d0037006420e1009f0032000801be0015
:100a10000200be00f7ff37006120e1009a003200bb
:100a20006000b800f3ff37000000200001f8270045
:100a3000f0ff370014002000f5013700f4ff2f000d
:100a4000f30137000003be00650007006011b80025
:100a50000470a70007f0a10007f8a30017003a00f0
:100a60006509b1000d0032000d003500860220003e
:100a70000628e10003003500030028006000b800ec
:100a8000020005000000400081804800020149008a
:100a9000838149008502e900faff3a000000060060
:100aa000f88f4200050034008100d1000080d3009f
:100ab0008502e800fcff3a00000006006011b80063
:100ac0008000eb00000005000001be0044000700ac
:100ad0000470a70003f0a10003f8a30013003a007c
:100ae0006509b10010003200090035006928e100f5
:100af0000200350001002800000005000000400051
:100b0000818048008502e900fcff3a0000000600f1
:100b1000f88f4200050035008100d1000080d3002d
:100b20008502e800fcff3a00000006008000eb00b0
:100b3000000005004f89de0082017800cf013700f8
:100b40006011b800dd013700810020006180550090
:100b50000b003d000b00200061fe2f000100e100b2
:100b60001d00340082817100610164008904d1009c
:100b70000884d3000000e800faff3a00710020006a
:100b80006100640003007000020060000900320090
:100b900061044400e0844c000988a500050032008f
:100ba0008b05e8006808e10002003a008904d100e2
:100bb0000884d300f20f20000258e10005003d0038
:100bc000c75ddd00f907b200898075000800780074
:100bd000000006000bf827008b00780000000500dd
:100be000c70ade00f107b200f50fb20008003200bc
:100bf000e1cf4200020032000170a0002400050095
:100c0000810f700001003200040805004400050057
:100c1000810f700002003a00140005008502e9000f
:100c20000000400081c04800fcff3b000170a000b4
:100c3000240005000004be00e9ff07000003be0019
:100c40000405be000200be00e5ff0700844f7500ea
:100c5000000006000200be006450e10005003600fe
:100c60006420e100020036000968a30001003a0098
:100c70000800be000160a0004f0678004f05be00ce
:100c80004f04be0000000600f0ff2f00f1ff270018
:100c9000f9ff3700889fbe008a9fbe008c1f780036
:100ca000e4ff0700ebff330003866c006450e100b3
:100cb000240032006420e100270032006150e1008e
:100cc000220032006120e100210032008b854200c9
:100cd000eb07b1000134b800003ab8000804420044
:100ce00089844a00013ab8000030b800888040008a
:100cf00009014a00040033000000400081804800e0
:100d0000020149008b05e900c909dd00830170007b
:100d10000100320013002000c814de004814dd007a
:100d20004709de001200b200c808de000884700027
:100d300085ff070001f0a1000cf0a70001f0a00062
:100d4000cdff37006120e100cfff32000801be0077
:100d50000200be00f7ff37006150e100fcff3a00df
:100d6000c9ff3700889fbe008a9fbe003004420042
:100d7000b0844a0030054b0090854b006000b10004
:100d80000898be000a90be000440e10005c8e100da
:100d900006d0e10007d8e100020031006800400001
:100da0001008e8004f05be004f04be00000006001a
:100db000889fbe008a9fbe003004be002005be0092
:100dc0000418540005985c0006185d0007985d0043
:100dd000110020000440e10005c8e10006d0e10058
:100de00007d8e100010039008000eb0010881000f6
:100df0004f05be004f04be00000006001200fa00be
:100e0000889fbe008a9fbe008c9fbe00e0b79f00f7
:100e1000f1b79f0082bf9f0093bf9f000605be00f1
:100e20000404be000000eb00d0b79f00c0b79f00d5
:100e3000b0b79f00a0b79f0090b79f000006eb00df
:100e40005fb19700cfb09700820141003fb097009b
:100e50000200e00004003d00370007007e805700dc
:100e6000c0ff070003003700330007007e805700f3
:100e7000cfff0700dfb697000d00e0000c00350043
:100e80006fb29700ffb297000fbb97009fbb970010
:100e900010002000010020006011b8000002720064
:100ea0008182720002037300838373001b000700ba
:100eb0000c06e80001042000810f5600e0ff3a0014
:100ec0000d00e00004003d000802be000a03be0061
:100ed0007e805700a3ff07005fa897000000e00096
:100ee00005003a001fb29700afb297003fb39700da
:100ef000cfb39700090007006fb09700ffb09700cd
:100f00000fb997009fb997004f06be004f05be006e
:100f10004f04be000080fa00000006000100070038
:100f200000000600a4b79f00b5b79f00c6b79f009a
:100f3000d7b79f00000006004f09de0082817100d4
:100f4000b3b79f004f01de008180400082807000b7
:100f5000a1b79f008fb097004f09de00000040004e
:100f60000200700090b79f007fa897004f01de003d
:100f7000818040008280700081b79f000d000700d3
:100f80004f3ade000000400004007000f0af9f0008
:100f9000080007000402420085824a0006034b0055
:100fa00087834b00dfff07000802be000a03be0074
:100fb000000006002fb29700bfb297004fb3970012
:100fc000dfb3970000000600881f7800180020009b
:100fd000881f780089ff07008f87e9004f04780099
:100fe00000000600801feb0084ff07008f87e900e8
:100ff00000000600889fbe008a9fbe00e00f5000e0
:10100000e08f5800e00f5900e08f59000c003d00c0
:101010006044b8006055b8000000540081805c0056
:1010200002015d0083815d001800200015000700ab
:1010300008003d00180007000004eb000500370021
:101040000004eb000f00070002003d001200070043
:1010500018002000dcff07000800e0000600320056
:101060006022b8006033b8000000520081805a004e
:1010700002015b0083815b004f05be004f04be0090
:1010800000000600e00f5200e08f5a00e00f5b0006
:10109000e08f5b00000006006044b8006055b800b7
:1010a0000402540085825c0006035d0087835d00b6
:1010b00000000600889fbe008a9fbe008c1f78003b
:1010c000e00f5000e08f5800e00f5900e08f59000a
:1010d0000d003d006044b8006055b80000005400a9
:1010e00081805c0002015d0083815d001c002000a6
:1010f0000820e10009a8e1000ab0e1000bb8e10016
:101100000d003d00080037000006eb00e00f520024
:10111000e08f5a00e00f5b00e08f5b0006003d00af
:101120006044b8006055b8000402540085825c0039
:1011300006035d0087835d00aaff07000c00e00046
:10114000060032006022b8006033b8000000520090
:1011500081805a0002015b0083815b004f067800aa
:101160004f05be004f04be0000000600889fbe0071
:101170008a9fbe008c1f78000006eb00e00f500035
:10118000e08f5800e00f5900e08f590007003d0044
:101190006044b8006055b8000000540081805c00d5
:1011a00002015d0083815d001c002000e00f520001
:1011b000e08f5a00e00f5b00e08f5b0007003d000e
:1011c0006044b8006055b8000402540085825c0099
:1011d00006035d0087835d000c00a2006600070027
:1011e0000c00e000060032006022b8006033b80056
:1011f0000000520081805a0002015b0083815b0085
:101200004f0678004f05be004f04be0000000600e8
:10121000889fbe008a9fbe00841f780085fe07005d
:101220004f00780011003300f0ff2f00838f6c0017
:1012300006003b00040565000a00a700080037000f
:1012400009f0a6001000200008003700820f5400ab
:10125000838f5c00030039001000200001003e0075
:101260000000200009f0a7000000ea004f05be00c2
:101270004f04be000000e00000000600881f780058
:10128000030478000300e00007003d006000100048
:10129000e080180060011900e081190002003b00a5
:1012a00001f02d00030037000400070008f0a7003c
:1012b00001f0a0004f04780000000600889fbe00e7
:1012c0008a9fbe00008270000402710004827100d7
:1012d000260032000004be000200be006011b8000b
:1012e0006b092000950220000182cf000a0039001e
:1012f0000541b1000082cf00070039000541b1006f
:101300000982cf00040039000541b1000882cf00f6
:10131000010039000541b1000542520012003200bf
:101320000a003b0082817100610164008100d100ec
:101330000080d3008984d3000884d3008b05e800a3
:101340000442e800f7ff3a000700370008044400b1
:1013500089844c0000004800818048008b05e9002a
:101360000442e900f9ff3a00f7fd07004f05be000f
:101370004f04be0000000600889fbe008a9fbe008a
:101380008c9fbe000404b8000506b800890446001e
:1013900060854e000606b8000a054600e0854e004e
:1013a0000706b8008b054600040eb8008904460005
:1013b0000a854e00e0854d00050eb8000a0546007e
:1013c0008b854e00060eb8008b0546000416b8004b
:1013d0000a0546008b854e000516b8008b054600b1
:1013e000041eb8008b0546000800be000a01be00be
:1013f0004f06be004f05be004f04be0000000600b1
:020000040000fa
:101400000200fa00881f7800213a8000f08f2f0038
:10141000008060000090a000203a8800460007008d
:101420005400070062000700a60007007f000700c5
:101430002e28ef0000002000812c240079020700f4
:1014400000002000812c240076020700000020000c
:10145000812c2400730207000000eb00000f7800cd
:10146000a01880008000eb00b5fd07001041880047
:1014700021418800901880008000eb00b0fd07003b
:101480003041880041418800a0408000cf80de00cc
:10149000a8fd07000002be0010418000214180002d
:1014a00018c0b3000001be000400be0061fd0700cb
:1014b0000000e000010035000044eb000804e000fb
:1014c000030032003428ef003228ef001800370004
:1014d000a0408000cf80de0096fd07000002be0025
:1014e000304180004141800018c0b3000001be00bf
:1014f0000400be004ffd07000000e00001003500c1
:101500000044eb000804e000050032002000200049
:10151000a04188001000200090418800040037009e
:1015200010002000a0418800200020009041880089
:1015300025010700caff37000000fa00c002a90019
:10154000c022a900c802a900c822a900c842a80058
:10155000c042a900c062a800c0c2a900c982a900f7
:10156000c9a2a900c9c2a800c9e2a8000080fa0067
:10157000000006000000fa00e004a900e024a90031
:10158000e204a900e224a900e244a800e044a90082
:10159000e064a900e284a900e384a900e3a4a9000f
:1015a000e3c4a800e3e4a8000080fa0000000600fd
:1015b0000000fa0005e1a8002108800000032000d7
:1015c00001007000200888000421a9000021ef001c
:1015d00021058000f0ff28000080600000e0a000ee
:1015e000200588009460a8008460a9000071220092
:1015f000100888008460a9006300a8006f00a9009b
:1016000061058000f0ff2800808060000000260057
:1016100001007000600588008660a9009660a8003f
:101620008660a9000080fa00000006000000fa00b1
:10163000111a8000f0ff230000806000101a88005b
:1016400043a3a90020c0b30044e3b700011a8000ff
:10165000f0f02f0080806000000720000100700083
:10166000001a88004043a800211a8000f00f2e00c5
:10167000008060000080a000201a88004343a8007a
:101680005083a8005123a8005143a8004143a8005b
:10169000011a8000f0cf2f0000806000001a88003f
:1016a0004363a800111a800030f82f00008060000a
:1016b0000030a000101a880041e3a8000080fa0062
:1016c000000006000000fa009021ef009221ef00d8
:1016d0000040800011408000fbfc07000000780003
:1016e000b00c880000408000114080000001be0066
:1016f00031fc0700f4fc070000007800a00c880013
:10170000810c800000c0210001007000800c880066
:10171000900c8000f001b300900c880092e1a900c9
:10172000810c800080ff2f00008060006000b3000b
:10173000800c88009a21ef009c21ef00404080003f
:1017400051408000e0fc070000007800000d880098
:101750002040800031408000dbfc07000000780062
:10176000f00c8800d10c800000c021000100700046
:10177000d00c8800e00c8000f001b300e00c880081
:101780009ce1a900d10c800080ff2f000080600048
:101790006000b300d00c8800a421ef00a621ef0068
:1017a000aa21ef00f0408000014180000001be004e
:1017b0000000200001f823005cfc07000002be00ce
:1017c00060408000714080000001be000400be0047
:1017d00030fd07000001be00f7fb0700bafc070060
:1017e00000007800400d8800210d800000c021001d
:1017f00001007000200d8800300d8000f001b30062
:10180000300d8800a6e1a900210d800080ff2f0087
:10181000008060006000b300200d88000080fa00a6
:10182000000006000000fa0080418000e10f500037
:101830000a003200e10f500005003900e20f5000ad
:1018400009003200e30f50000a0032000c0037009c
:10185000cda2a900cd82a9000e003700cda2a8001c
:10186000cd82a8000b003700cda2a800cd82a90030
:1018700008003700cda2a900cd82a90005003700dd
:10188000d07b230061582300b0408800c14088000d
:1018900000000000b0408000c14080000001be0098
:1018a0000000200001f8230020fc07000002be0019
:1018b00000408000114080000001be000400be0016
:1018c000f4fc070080fc070000007800b00c8800e2
:1018d000b0408000c14080000001be000000200038
:1018e00001f8230011fc07000002be000040800048
:1018f000114080000001be000400be00e5fc0700ae
:101900000001be00acfb07006ffc07000000780080
:10191000a00c8800c402a800c442a8000080fa00fd
:10192000000006000000fa00c402a900c442a90099
:10193000d07b230061582300b0408800c14088005c
:10194000b0408000c14080000001be0000002000c7
:1019500001f82300f5fb07000002be0000408000f4
:10196000114080000001be000400be00c9fc070059
:1019700055fc070000007800b00c8800b0408000e3
:10198000c14080000001be000000200001f82300db
:10199000e6fb07000002be0000408000114080000e
:1019a0000001be000400be00bafc07000001be003a
:1019b00081fb070044fc070000007800a00c8800b1
:1019c0000080fa00000006000000fa00881f78007e
:1019d00090418000e10f50002e003200e10f5000d6
:1019e00003003900e20f500053003200800037003e
:1019f000404080005140800018c0b30002002c001d
:101a0000a34d24000dfc07000000e00001003c0095
:101a10000044eb000804e00009003200444080006c
:101a200055408000d0408000e14080000001be00b1
:101a30000400be005ffb0700404088005140880062
:101a4000404080005140800018c0b30002002c00cc
:101a5000a34d2400f7fb07000000e0000100350063
:101a60000044eb000804e0005c00320044408000c9
:101a700055408000d0408000e14080000001be0061
:101a80000400be004cfb0700404088005140880025
:101a900057003700404080005140800018c0b3001c
:101aa00002002400c3492400e4fb07000000e0001a
:101ab00001003c000044eb000804e0000900320093
:101ac0004440800055408000d0408000e1408000cc
:101ad0000001be000400be0036fb07004040880045
:101ae00051408800404080005140800018c0b30041
:101af00002002400c3492400cefb07000000e000e0
:101b0000010035000044eb000804e000350032001d
:101b10004440800055408000d0408000e14080007b
:101b20000001be000400be0023fb07004040880007
:101b3000514088002e003700404080005140800016
:101b400018c0b30002002800b34b2400bbfb070001
:101b50000000e00001003c000044eb000804e0004d
:101b6000090032004440800055408000d040800091
:101b7000e14080000001be000400be000dfb070034
:101b80004040880051408800404080005140800023
:101b900018c0b30002002800b34b2400a5fb0700c7
:101ba0000000e000010035000044eb000804e00004
:101bb0000e0032004440800055408000d04080003c
:101bc000e14080000001be000400be00fafa0700f8
:101bd00040408800514088000500370000000000a8
:101be0000300370000000000010037000000000083
:101bf0004040800051408000b3fb070000007800a7
:101c0000000d88002040800031408000aefb0700be
:101c100000007800f00c8800cc02a8004f04780087
:101c20000080fa00000006000000fa0030002000ea
:101c300090418800cc02a9000080fa000000060054
:101c40000000fa00f0408000014180000001be0069
:101c50000000200001f8230034fb07000002be0052
:101c600060408000714080000001be000400be00a2
:101c700008fc070094fb070000007800500d880066
:101c8000f0408000014180000001be000000200003
:101c900001f8230025fb07000002be006040800021
:101ca000714080000001be000400be00f9fb070087
:101cb0000001be00c0fa070083fb070000007800a7
:101cc000400d8800cc22a8000080fa000000060029
:101cd0000000fa00cc22a90070c72c00b12223001a
:101ce000f040880001418800aa21ef00f040800008
:101cf000014180000001be000000200001f8230027
:101d00000afb07000002be006040800071408000b6
:101d10000001be000400be00defb07000001be00a3
:101d2000a5fa070068fb070000007800400d880056
:101d30000080fa00000006000200fa00000f7800a0
:101d40001e007800100888000021ef000080fa00d3
:101d5000000006000000fa00881f78000800370025
:101d6000b0408000c1408000a2702d0033d223001b
:101d700090fa0700b0408800c1408800a9fe070023
:101d8000b0408000c140800018c0b3006011b800ae
:101d90002afb07000000e00001003c000044eb00cb
:101da0000804e000eeff3a004f0478000080fa00db
:101db000000006000400fa00881f7800008fbe00b3
:101dc00008003700b0408000c1408000a2702d00a4
:101dd00033c2230078fa0700b0408800c140880071
:101de00090fe0700b0408000c140800018c0b300e2
:101df0001e01be000ffb07000000e00001003500df
:101e00000044eb000804e000eeff3a001e01be00b3
:101e1000b2408800c34088004f0478000080fa0078
:101e2000000006000400fa00008fbe00c402a800f3
:101e30001e00be0003fb070004902000d503200015
:101e40006033b800c9fc0700843e20000500200074
:101e50006033b8005cfc07000000be0022000700f1
:101e6000c402a9001e00be00f6fa0700049020007c
:101e7000d50320006033b800bcfc0700843e20007e
:101e8000050020006033b8004ffc07000000be00d2
:0c1e9000150007000080fa0000000600aa
:020000040000fa
:101e9c000008000022000000020000000000fa0010
:101eac00440040009c46000080bb44000000fa0047
:101ebc00440b00000008200003acc5002737bd0010
:101ecc0037863500acc5270037000000220800001b
:0c1edc00140000000000000000000000e6
:020000040000fa
:101ee800f03fb1000180b10006003500ee030900a3
:101ef80000000000403fb1000180b100fbff3d0041
:101f08001000b000203fb00002003500008009003a
:081f18000000000000000600bb
:020000040000fa
:0200000401f009
:04000c00dfff000012
:020000040000fa
:0200000401f009
:04001000fbff0000f2
:020000040000fa
:0200000401f009
:040014005fff00008a
:020000040000fa
:0200000401f009
:04001c00fdff0000e4
:00000001FF
